{
  "contractName": "DragonStreetNFT",
  "abi": [
    {
      "inputs": [
        {
          "internalType": "address",
          "name": "_proxyRegistryAddress",
          "type": "address"
        }
      ],
      "stateMutability": "nonpayable",
      "type": "constructor"
    },
    {
      "anonymous": false,
      "inputs": [
        {
          "indexed": true,
          "internalType": "address",
          "name": "owner",
          "type": "address"
        },
        {
          "indexed": true,
          "internalType": "address",
          "name": "approved",
          "type": "address"
        },
        {
          "indexed": true,
          "internalType": "uint256",
          "name": "tokenId",
          "type": "uint256"
        }
      ],
      "name": "Approval",
      "type": "event"
    },
    {
      "anonymous": false,
      "inputs": [
        {
          "indexed": true,
          "internalType": "address",
          "name": "owner",
          "type": "address"
        },
        {
          "indexed": true,
          "internalType": "address",
          "name": "operator",
          "type": "address"
        },
        {
          "indexed": false,
          "internalType": "bool",
          "name": "approved",
          "type": "bool"
        }
      ],
      "name": "ApprovalForAll",
      "type": "event"
    },
    {
      "anonymous": false,
      "inputs": [
        {
          "indexed": false,
          "internalType": "address",
          "name": "userAddress",
          "type": "address"
        },
        {
          "indexed": false,
          "internalType": "address payable",
          "name": "relayerAddress",
          "type": "address"
        },
        {
          "indexed": false,
          "internalType": "bytes",
          "name": "functionSignature",
          "type": "bytes"
        }
      ],
      "name": "MetaTransactionExecuted",
      "type": "event"
    },
    {
      "anonymous": false,
      "inputs": [
        {
          "indexed": true,
          "internalType": "address",
          "name": "previousOwner",
          "type": "address"
        },
        {
          "indexed": true,
          "internalType": "address",
          "name": "newOwner",
          "type": "address"
        }
      ],
      "name": "OwnershipTransferred",
      "type": "event"
    },
    {
      "anonymous": false,
      "inputs": [
        {
          "indexed": true,
          "internalType": "address",
          "name": "from",
          "type": "address"
        },
        {
          "indexed": true,
          "internalType": "address",
          "name": "to",
          "type": "address"
        },
        {
          "indexed": true,
          "internalType": "uint256",
          "name": "tokenId",
          "type": "uint256"
        }
      ],
      "name": "Transfer",
      "type": "event"
    },
    {
      "inputs": [],
      "name": "ERC712_VERSION",
      "outputs": [
        {
          "internalType": "string",
          "name": "",
          "type": "string"
        }
      ],
      "stateMutability": "view",
      "type": "function",
      "constant": true
    },
    {
      "inputs": [],
      "name": "MINT_PRICE",
      "outputs": [
        {
          "internalType": "uint256",
          "name": "",
          "type": "uint256"
        }
      ],
      "stateMutability": "view",
      "type": "function",
      "constant": true
    },
    {
      "inputs": [],
      "name": "TOTAL_SUPPLY",
      "outputs": [
        {
          "internalType": "uint256",
          "name": "",
          "type": "uint256"
        }
      ],
      "stateMutability": "view",
      "type": "function",
      "constant": true
    },
    {
      "inputs": [
        {
          "internalType": "address",
          "name": "to",
          "type": "address"
        },
        {
          "internalType": "uint256",
          "name": "tokenId",
          "type": "uint256"
        }
      ],
      "name": "approve",
      "outputs": [],
      "stateMutability": "nonpayable",
      "type": "function"
    },
    {
      "inputs": [
        {
          "internalType": "address",
          "name": "owner",
          "type": "address"
        }
      ],
      "name": "balanceOf",
      "outputs": [
        {
          "internalType": "uint256",
          "name": "",
          "type": "uint256"
        }
      ],
      "stateMutability": "view",
      "type": "function",
      "constant": true
    },
    {
      "inputs": [
        {
          "internalType": "address",
          "name": "userAddress",
          "type": "address"
        },
        {
          "internalType": "bytes",
          "name": "functionSignature",
          "type": "bytes"
        },
        {
          "internalType": "bytes32",
          "name": "sigR",
          "type": "bytes32"
        },
        {
          "internalType": "bytes32",
          "name": "sigS",
          "type": "bytes32"
        },
        {
          "internalType": "uint8",
          "name": "sigV",
          "type": "uint8"
        }
      ],
      "name": "executeMetaTransaction",
      "outputs": [
        {
          "internalType": "bytes",
          "name": "",
          "type": "bytes"
        }
      ],
      "stateMutability": "payable",
      "type": "function",
      "payable": true
    },
    {
      "inputs": [
        {
          "internalType": "uint256",
          "name": "tokenId",
          "type": "uint256"
        }
      ],
      "name": "getApproved",
      "outputs": [
        {
          "internalType": "address",
          "name": "",
          "type": "address"
        }
      ],
      "stateMutability": "view",
      "type": "function",
      "constant": true
    },
    {
      "inputs": [],
      "name": "getChainId",
      "outputs": [
        {
          "internalType": "uint256",
          "name": "",
          "type": "uint256"
        }
      ],
      "stateMutability": "view",
      "type": "function",
      "constant": true
    },
    {
      "inputs": [],
      "name": "getDomainSeperator",
      "outputs": [
        {
          "internalType": "bytes32",
          "name": "",
          "type": "bytes32"
        }
      ],
      "stateMutability": "view",
      "type": "function",
      "constant": true
    },
    {
      "inputs": [
        {
          "internalType": "address",
          "name": "user",
          "type": "address"
        }
      ],
      "name": "getNonce",
      "outputs": [
        {
          "internalType": "uint256",
          "name": "nonce",
          "type": "uint256"
        }
      ],
      "stateMutability": "view",
      "type": "function",
      "constant": true
    },
    {
      "inputs": [
        {
          "internalType": "address",
          "name": "owner",
          "type": "address"
        },
        {
          "internalType": "address",
          "name": "operator",
          "type": "address"
        }
      ],
      "name": "isApprovedForAll",
      "outputs": [
        {
          "internalType": "bool",
          "name": "",
          "type": "bool"
        }
      ],
      "stateMutability": "view",
      "type": "function",
      "constant": true
    },
    {
      "inputs": [
        {
          "internalType": "address",
          "name": "_to",
          "type": "address"
        }
      ],
      "name": "mintTo",
      "outputs": [],
      "stateMutability": "payable",
      "type": "function",
      "payable": true
    },
    {
      "inputs": [],
      "name": "name",
      "outputs": [
        {
          "internalType": "string",
          "name": "",
          "type": "string"
        }
      ],
      "stateMutability": "view",
      "type": "function",
      "constant": true
    },
    {
      "inputs": [],
      "name": "owner",
      "outputs": [
        {
          "internalType": "address",
          "name": "",
          "type": "address"
        }
      ],
      "stateMutability": "view",
      "type": "function",
      "constant": true
    },
    {
      "inputs": [
        {
          "internalType": "uint256",
          "name": "tokenId",
          "type": "uint256"
        }
      ],
      "name": "ownerOf",
      "outputs": [
        {
          "internalType": "address",
          "name": "",
          "type": "address"
        }
      ],
      "stateMutability": "view",
      "type": "function",
      "constant": true
    },
    {
      "inputs": [
        {
          "internalType": "address",
          "name": "dest",
          "type": "address"
        }
      ],
      "name": "payments",
      "outputs": [
        {
          "internalType": "uint256",
          "name": "",
          "type": "uint256"
        }
      ],
      "stateMutability": "view",
      "type": "function",
      "constant": true
    },
    {
      "inputs": [],
      "name": "renounceOwnership",
      "outputs": [],
      "stateMutability": "nonpayable",
      "type": "function"
    },
    {
      "inputs": [
        {
          "internalType": "address",
          "name": "from",
          "type": "address"
        },
        {
          "internalType": "address",
          "name": "to",
          "type": "address"
        },
        {
          "internalType": "uint256",
          "name": "tokenId",
          "type": "uint256"
        }
      ],
      "name": "safeTransferFrom",
      "outputs": [],
      "stateMutability": "nonpayable",
      "type": "function"
    },
    {
      "inputs": [
        {
          "internalType": "address",
          "name": "from",
          "type": "address"
        },
        {
          "internalType": "address",
          "name": "to",
          "type": "address"
        },
        {
          "internalType": "uint256",
          "name": "tokenId",
          "type": "uint256"
        },
        {
          "internalType": "bytes",
          "name": "_data",
          "type": "bytes"
        }
      ],
      "name": "safeTransferFrom",
      "outputs": [],
      "stateMutability": "nonpayable",
      "type": "function"
    },
    {
      "inputs": [
        {
          "internalType": "address",
          "name": "operator",
          "type": "address"
        },
        {
          "internalType": "bool",
          "name": "approved",
          "type": "bool"
        }
      ],
      "name": "setApprovalForAll",
      "outputs": [],
      "stateMutability": "nonpayable",
      "type": "function"
    },
    {
      "inputs": [
        {
          "internalType": "bytes4",
          "name": "interfaceId",
          "type": "bytes4"
        }
      ],
      "name": "supportsInterface",
      "outputs": [
        {
          "internalType": "bool",
          "name": "",
          "type": "bool"
        }
      ],
      "stateMutability": "view",
      "type": "function",
      "constant": true
    },
    {
      "inputs": [],
      "name": "symbol",
      "outputs": [
        {
          "internalType": "string",
          "name": "",
          "type": "string"
        }
      ],
      "stateMutability": "view",
      "type": "function",
      "constant": true
    },
    {
      "inputs": [
        {
          "internalType": "uint256",
          "name": "_tokenId",
          "type": "uint256"
        }
      ],
      "name": "tokenURI",
      "outputs": [
        {
          "internalType": "string",
          "name": "",
          "type": "string"
        }
      ],
      "stateMutability": "pure",
      "type": "function",
      "constant": true
    },
    {
      "inputs": [],
      "name": "totalSupply",
      "outputs": [
        {
          "internalType": "uint256",
          "name": "",
          "type": "uint256"
        }
      ],
      "stateMutability": "view",
      "type": "function",
      "constant": true
    },
    {
      "inputs": [
        {
          "internalType": "address",
          "name": "from",
          "type": "address"
        },
        {
          "internalType": "address",
          "name": "to",
          "type": "address"
        },
        {
          "internalType": "uint256",
          "name": "tokenId",
          "type": "uint256"
        }
      ],
      "name": "transferFrom",
      "outputs": [],
      "stateMutability": "nonpayable",
      "type": "function"
    },
    {
      "inputs": [
        {
          "internalType": "address",
          "name": "newOwner",
          "type": "address"
        }
      ],
      "name": "transferOwnership",
      "outputs": [],
      "stateMutability": "nonpayable",
      "type": "function"
    },
    {
      "inputs": [
        {
          "internalType": "address payable",
          "name": "payee",
          "type": "address"
        }
      ],
      "name": "withdrawPayments",
      "outputs": [],
      "stateMutability": "nonpayable",
      "type": "function"
    },
    {
      "inputs": [],
      "name": "baseTokenURI",
      "outputs": [
        {
          "internalType": "string",
          "name": "",
          "type": "string"
        }
      ],
      "stateMutability": "pure",
      "type": "function",
      "constant": true
    },
    {
      "inputs": [],
      "name": "contractURI",
      "outputs": [
        {
          "internalType": "string",
          "name": "",
          "type": "string"
        }
      ],
      "stateMutability": "pure",
      "type": "function",
      "constant": true
    }
  ],
  "bytecode": "0x60a06040526006805460ff191690553480156200001b57600080fd5b5060405162002b7d38038062002b7d8339810160408190526200003e91620003de565b6040518060400160405280600f81526020016e111c9859dbdb94dd1c99595d139195608a1b815250604051806040016040528060038152602001622229a760e91b81525082828281600090805190602001906200009d9291906200032a565b508051620000b39060019060208401906200032a565b505050620000d0620000ca6200014e60201b60201c565b6200016a565b604051620000de90620003b9565b604051809103906000f080158015620000fb573d6000803e3d6000fd5b506001600160a01b03908116608052600b80546001600160a01b03191691831691909117905562000139600a620001bc602090811b62000f1217901c565b6200014483620001c5565b505050506200044d565b6000620001656200022960201b62000f1b1760201c565b905090565b600980546001600160a01b038381166001600160a01b0319831681179093556040519116919082907f8be0079c531659141344cd1fd0a4f28419497f9722a3daafe3b4186f6b6457e090600090a35050565b80546001019055565b60065460ff16156200020e5760405162461bcd60e51b815260206004820152600e60248201526d185b1c9958591e481a5b9a5d195960921b604482015260640160405180910390fd5b620002198162000288565b506006805460ff19166001179055565b6000333014156200028257600080368080601f0160208091040260200160405190810160405280939291908181526020018383808284376000920191909152505050503601516001600160a01b03169150620002859050565b50335b90565b6040518060800160405280604f815260200162002b2e604f9139805160209182012082519282019290922060408051808201825260018152603160f81b90840152805180840194909452838101919091527fc89efdaa54c0f20c7adf612882df0950f5a951637e0307cdcb4c672f298b8bc660608401523060808401524660a0808501919091528151808503909101815260c090930190528151910120600755565b828054620003389062000410565b90600052602060002090601f0160209004810192826200035c5760008555620003a7565b82601f106200037757805160ff1916838001178555620003a7565b82800160010185558215620003a7579182015b82811115620003a75782518255916020019190600101906200038a565b50620003b5929150620003c7565b5090565b610617806200251783390190565b5b80821115620003b55760008155600101620003c8565b600060208284031215620003f157600080fd5b81516001600160a01b03811681146200040957600080fd5b9392505050565b600181811c908216806200042557607f821691505b602082108114156200044757634e487b7160e01b600052602260045260246000fd5b50919050565b6080516120a76200047060003960008181610d0a015261138901526120a76000f3fe6080604052600436106101525760003560e01c806301ffc9a71461015757806306fdde031461018c578063081812fc146101ae578063095ea7b3146101db5780630c53c51c146101fd5780630f7e59701461021057806318160ddd1461023d57806320379ee51461026057806323b872dd146102755780632d0335ab1461029557806331b3eb94146102cb5780633408e470146102eb57806342842e0e146102fe5780636352211e1461031e57806370a082311461033e578063715018a61461035e578063755edd17146103735780638da5cb5b14610386578063902d55a51461039b57806395d89b41146103b1578063a22cb465146103c6578063b88d4fde146103e6578063c002d23d14610406578063c87b56dd14610421578063d547cfb714610441578063e2982c2114610456578063e8a3d48514610476578063e985e9c51461048b578063f2fde38b146104ab575b600080fd5b34801561016357600080fd5b50610177610172366004611987565b6104cb565b60405190151581526020015b60405180910390f35b34801561019857600080fd5b506101a161051d565b60405161018391906119fc565b3480156101ba57600080fd5b506101ce6101c9366004611a0f565b6105af565b6040516101839190611a28565b3480156101e757600080fd5b506101fb6101f6366004611a51565b61063c565b005b6101a161020b366004611b1f565b61075f565b34801561021c57600080fd5b506101a1604051806040016040528060018152602001603160f81b81525081565b34801561024957600080fd5b50610252610948565b604051908152602001610183565b34801561026c57600080fd5b50600754610252565b34801561028157600080fd5b506101fb610290366004611b9c565b610964565b3480156102a157600080fd5b506102526102b0366004611bdd565b6001600160a01b031660009081526008602052604090205490565b3480156102d757600080fd5b506101fb6102e6366004611bdd565b61099c565b3480156102f757600080fd5b5046610252565b34801561030a57600080fd5b506101fb610319366004611b9c565b6109e7565b34801561032a57600080fd5b506101ce610339366004611a0f565b610a02565b34801561034a57600080fd5b50610252610359366004611bdd565b610a79565b34801561036a57600080fd5b506101fb610b00565b6101fb610381366004611bdd565b610b4b565b34801561039257600080fd5b506101ce610c27565b3480156103a757600080fd5b5061025261271081565b3480156103bd57600080fd5b506101a1610c36565b3480156103d257600080fd5b506101fb6103e1366004611bfa565b610c45565b3480156103f257600080fd5b506101fb610401366004611c38565b610c57565b34801561041257600080fd5b50610252662386f26fc1000081565b34801561042d57600080fd5b506101a161043c366004611a0f565b610c96565b34801561044d57600080fd5b506101a1610cd0565b34801561046257600080fd5b50610252610471366004611bdd565b610cf0565b34801561048257600080fd5b506101a1610d80565b34801561049757600080fd5b506101776104a6366004611ca3565b610da0565b3480156104b757600080fd5b506101fb6104c6366004611bdd565b610e65565b60006001600160e01b031982166380ac58cd60e01b14806104fc57506001600160e01b03198216635b5e139f60e01b145b8061051757506301ffc9a760e01b6001600160e01b03198316145b92915050565b60606000805461052c90611cd1565b80601f016020809104026020016040519081016040528092919081815260200182805461055890611cd1565b80156105a55780601f1061057a576101008083540402835291602001916105a5565b820191906000526020600020905b81548152906001019060200180831161058857829003601f168201915b5050505050905090565b60006105ba82610f78565b6106205760405162461bcd60e51b815260206004820152602c60248201527f4552433732313a20617070726f76656420717565727920666f72206e6f6e657860448201526b34b9ba32b73a103a37b5b2b760a11b60648201526084015b60405180910390fd5b506000908152600460205260409020546001600160a01b031690565b600061064782610a02565b9050806001600160a01b0316836001600160a01b031614156106b55760405162461bcd60e51b815260206004820152602160248201527f4552433732313a20617070726f76616c20746f2063757272656e74206f776e656044820152603960f91b6064820152608401610617565b806001600160a01b03166106c7610f95565b6001600160a01b031614806106e357506106e3816104a6610f95565b6107505760405162461bcd60e51b815260206004820152603860248201527f4552433732313a20617070726f76652063616c6c6572206973206e6f74206f776044820152771b995c881b9bdc88185c1c1c9bdd995908199bdc88185b1b60421b6064820152608401610617565b61075a8383610f9f565b505050565b60408051606081810183526001600160a01b0388166000818152600860209081529085902054845283015291810186905261079d878287878761100d565b6107f35760405162461bcd60e51b815260206004820152602160248201527f5369676e657220616e64207369676e617475726520646f206e6f74206d6174636044820152600d60fb1b6064820152608401610617565b6001600160a01b0387166000908152600860205260409020546108179060016110fd565b6001600160a01b0388166000908152600860205260409081902091909155517f5845892132946850460bff5a0083f71031bc5bf9aadcd40f1de79423eac9b10b9061086790899033908a90611d0c565b60405180910390a1600080306001600160a01b0316888a60405160200161088f929190611d41565b60408051601f19818403018152908290526108a991611d73565b6000604051808303816000865af19150503d80600081146108e6576040519150601f19603f3d011682016040523d82523d6000602084013e6108eb565b606091505b50915091508161093c5760405162461bcd60e51b815260206004820152601c60248201527b119d5b98dd1a5bdb8818d85b1b081b9bdd081cdd58d8d95cdcd99d5b60221b6044820152606401610617565b98975050505050505050565b60006001610955600a5490565b61095f9190611da5565b905090565b61097561096f610f95565b82611110565b6109915760405162461bcd60e51b815260040161061790611dbc565b61075a8383836111d2565b6109a4610f95565b6001600160a01b03166109b5610c27565b6001600160a01b0316146109db5760405162461bcd60e51b815260040161061790611e0d565b6109e481611372565b50565b61075a83838360405180602001604052806000815250610c57565b6000818152600260205260408120546001600160a01b0316806105175760405162461bcd60e51b815260206004820152602960248201527f4552433732313a206f776e657220717565727920666f72206e6f6e657869737460448201526832b73a103a37b5b2b760b91b6064820152608401610617565b60006001600160a01b038216610ae45760405162461bcd60e51b815260206004820152602a60248201527f4552433732313a2062616c616e636520717565727920666f7220746865207a65604482015269726f206164647265737360b01b6064820152608401610617565b506001600160a01b031660009081526003602052604090205490565b610b08610f95565b6001600160a01b0316610b19610c27565b6001600160a01b031614610b3f5760405162461bcd60e51b815260040161061790611e0d565b610b4960006113f3565b565b6000610b56600a5490565b90506127108110610b9e5760405162461bcd60e51b815260206004820152601260248201527113585e081cdd5c1c1b1e481c995858da195960721b6044820152606401610617565b662386f26fc100003414610c0b5760405162461bcd60e51b815260206004820152602e60248201527f5472616e73616374696f6e2076616c756520646964206e6f7420657175616c2060448201526d746865206d696e7420707269636560901b6064820152608401610617565b610c19600a80546001019055565b610c238282611445565b5050565b6009546001600160a01b031690565b60606001805461052c90611cd1565b610c23610c50610f95565b838361145f565b610c68610c62610f95565b83611110565b610c845760405162461bcd60e51b815260040161061790611dbc565b610c908484848461152a565b50505050565b6060610ca0610cd0565b610ca98361155d565b604051602001610cba929190611e42565b6040516020818303038152906040529050919050565b606060405180606001604052806027815260200161204b60279139905090565b6040516371d4ed8d60e11b81526000906001600160a01b037f0000000000000000000000000000000000000000000000000000000000000000169063e3a9db1a90610d3f908590600401611a28565b602060405180830381865afa158015610d5c573d6000803e3d6000fd5b505050506040513d601f19601f820116820180604052508101906105179190611e71565b60606040518060600160405280602d815260200161201e602d9139905090565b600b5460405163c455279160e01b81526000916001600160a01b039081169190841690829063c455279190610dd9908890600401611a28565b602060405180830381865afa158015610df6573d6000803e3d6000fd5b505050506040513d601f19601f82011682018060405250810190610e1a9190611e8a565b6001600160a01b03161415610e33576001915050610517565b6001600160a01b0380851660009081526005602090815260408083209387168352929052205460ff165b949350505050565b610e6d610f95565b6001600160a01b0316610e7e610c27565b6001600160a01b031614610ea45760405162461bcd60e51b815260040161061790611e0d565b6001600160a01b038116610f095760405162461bcd60e51b815260206004820152602660248201527f4f776e61626c653a206e6577206f776e657220697320746865207a65726f206160448201526564647265737360d01b6064820152608401610617565b6109e4816113f3565b80546001019055565b600033301415610f7257600080368080601f0160208091040260200160405190810160405280939291908181526020018383808284376000920191909152505050503601516001600160a01b03169150610f759050565b50335b90565b6000908152600260205260409020546001600160a01b0316151590565b600061095f610f1b565b600081815260046020526040902080546001600160a01b0319166001600160a01b0384169081179091558190610fd482610a02565b6001600160a01b03167f8c5be1e5ebec7d5bd14f71427d1e84f3dd0314c0f7b2291e5b200ac8c7c3b92560405160405180910390a45050565b60006001600160a01b0386166110735760405162461bcd60e51b815260206004820152602560248201527f4e61746976654d6574615472616e73616374696f6e3a20494e56414c49445f5360448201526424a3a722a960d91b6064820152608401610617565b60016110866110818761165a565b6116d7565b6040805160008152602081018083529290925260ff851690820152606081018690526080810185905260a0016020604051602081039080840390855afa1580156110d4573d6000803e3d6000fd5b505050602060405103516001600160a01b0316866001600160a01b031614905095945050505050565b60006111098284611ea7565b9392505050565b600061111b82610f78565b61117c5760405162461bcd60e51b815260206004820152602c60248201527f4552433732313a206f70657261746f7220717565727920666f72206e6f6e657860448201526b34b9ba32b73a103a37b5b2b760a11b6064820152608401610617565b600061118783610a02565b9050806001600160a01b0316846001600160a01b031614806111c25750836001600160a01b03166111b7846105af565b6001600160a01b0316145b80610e5d5750610e5d8185610da0565b826001600160a01b03166111e582610a02565b6001600160a01b03161461124d5760405162461bcd60e51b815260206004820152602960248201527f4552433732313a207472616e73666572206f6620746f6b656e2074686174206960448201526839903737ba1037bbb760b91b6064820152608401610617565b6001600160a01b0382166112af5760405162461bcd60e51b8152602060048201526024808201527f4552433732313a207472616e7366657220746f20746865207a65726f206164646044820152637265737360e01b6064820152608401610617565b6112ba600082610f9f565b6001600160a01b03831660009081526003602052604081208054600192906112e3908490611da5565b90915550506001600160a01b0382166000908152600360205260408120805460019290611311908490611ea7565b909155505060008181526002602052604080822080546001600160a01b0319166001600160a01b0386811691821790925591518493918716917fddf252ad1be2c89b69c2b068fc378daa952ba7f163c4a11628f55a4df523b3ef91a4505050565b6040516351cff8d960e01b81526001600160a01b037f000000000000000000000000000000000000000000000000000000000000000016906351cff8d9906113be908490600401611a28565b600060405180830381600087803b1580156113d857600080fd5b505af11580156113ec573d6000803e3d6000fd5b5050505050565b600980546001600160a01b038381166001600160a01b0319831681179093556040519116919082907f8be0079c531659141344cd1fd0a4f28419497f9722a3daafe3b4186f6b6457e090600090a35050565b610c23828260405180602001604052806000815250611707565b816001600160a01b0316836001600160a01b031614156114bd5760405162461bcd60e51b815260206004820152601960248201527822a9219b99189d1030b8383937bb32903a379031b0b63632b960391b6044820152606401610617565b6001600160a01b03838116600081815260056020908152604080832094871680845294825291829020805460ff191686151590811790915591519182527f17307eab39ab6107e8899845ad3d59bd9653f200f220920489ca2b5937696c31910160405180910390a3505050565b6115358484846111d2565b6115418484848461173a565b610c905760405162461bcd60e51b815260040161061790611ebf565b6060816115815750506040805180820190915260018152600360fc1b602082015290565b8160005b81156115ab578061159581611f11565b91506115a49050600a83611f42565b9150611585565b6000816001600160401b038111156115c5576115c5611a7d565b6040519080825280601f01601f1916602001820160405280156115ef576020820181803683370190505b5090505b8415610e5d57611604600183611da5565b9150611611600a86611f56565b61161c906030611ea7565b60f81b81838151811061163157611631611f6a565b60200101906001600160f81b031916908160001a905350611653600a86611f42565b94506115f3565b6000604051806080016040528060438152602001611fdb60439139805160209182012083518483015160408087015180519086012090516116ba950193845260208401929092526001600160a01b03166040830152606082015260800190565b604051602081830303815290604052805190602001209050919050565b60006116e260075490565b60405161190160f01b60208201526022810191909152604281018390526062016116ba565b611711838361183f565b61171e600084848461173a565b61075a5760405162461bcd60e51b815260040161061790611ebf565b60006001600160a01b0384163b1561183457836001600160a01b031663150b7a02611763610f95565b8786866040518563ffffffff1660e01b81526004016117859493929190611f80565b6020604051808303816000875af19250505080156117c0575060408051601f3d908101601f191682019092526117bd91810190611fbd565b60015b61181a573d8080156117ee576040519150601f19603f3d011682016040523d82523d6000602084013e6117f3565b606091505b5080516118125760405162461bcd60e51b815260040161061790611ebf565b805181602001fd5b6001600160e01b031916630a85bd0160e11b149050610e5d565b506001949350505050565b6001600160a01b0382166118955760405162461bcd60e51b815260206004820181905260248201527f4552433732313a206d696e7420746f20746865207a65726f20616464726573736044820152606401610617565b61189e81610f78565b156118ea5760405162461bcd60e51b815260206004820152601c60248201527b115490cdcc8c4e881d1bdad95b88185b1c9958591e481b5a5b9d195960221b6044820152606401610617565b6001600160a01b0382166000908152600360205260408120805460019290611913908490611ea7565b909155505060008181526002602052604080822080546001600160a01b0319166001600160a01b03861690811790915590518392907fddf252ad1be2c89b69c2b068fc378daa952ba7f163c4a11628f55a4df523b3ef908290a45050565b6001600160e01b0319811681146109e457600080fd5b60006020828403121561199957600080fd5b813561110981611971565b60005b838110156119bf5781810151838201526020016119a7565b83811115610c905750506000910152565b600081518084526119e88160208601602086016119a4565b601f01601f19169290920160200192915050565b60208152600061110960208301846119d0565b600060208284031215611a2157600080fd5b5035919050565b6001600160a01b0391909116815260200190565b6001600160a01b03811681146109e457600080fd5b60008060408385031215611a6457600080fd5b8235611a6f81611a3c565b946020939093013593505050565b634e487b7160e01b600052604160045260246000fd5b600082601f830112611aa457600080fd5b81356001600160401b0380821115611abe57611abe611a7d565b604051601f8301601f19908116603f01168101908282118183101715611ae657611ae6611a7d565b81604052838152866020858801011115611aff57600080fd5b836020870160208301376000602085830101528094505050505092915050565b600080600080600060a08688031215611b3757600080fd5b8535611b4281611a3c565b945060208601356001600160401b03811115611b5d57600080fd5b611b6988828901611a93565b9450506040860135925060608601359150608086013560ff81168114611b8e57600080fd5b809150509295509295909350565b600080600060608486031215611bb157600080fd5b8335611bbc81611a3c565b92506020840135611bcc81611a3c565b929592945050506040919091013590565b600060208284031215611bef57600080fd5b813561110981611a3c565b60008060408385031215611c0d57600080fd5b8235611c1881611a3c565b915060208301358015158114611c2d57600080fd5b809150509250929050565b60008060008060808587031215611c4e57600080fd5b8435611c5981611a3c565b93506020850135611c6981611a3c565b92506040850135915060608501356001600160401b03811115611c8b57600080fd5b611c9787828801611a93565b91505092959194509250565b60008060408385031215611cb657600080fd5b8235611cc181611a3c565b91506020830135611c2d81611a3c565b600181811c90821680611ce557607f821691505b60208210811415611d0657634e487b7160e01b600052602260045260246000fd5b50919050565b6001600160a01b03848116825283166020820152606060408201819052600090611d38908301846119d0565b95945050505050565b60008351611d538184602088016119a4565b60609390931b6001600160601b0319169190920190815260140192915050565b60008251611d858184602087016119a4565b9190910192915050565b634e487b7160e01b600052601160045260246000fd5b600082821015611db757611db7611d8f565b500390565b60208082526031908201527f4552433732313a207472616e736665722063616c6c6572206973206e6f74206f6040820152701ddb995c881b9bdc88185c1c1c9bdd9959607a1b606082015260800190565b6020808252818101527f4f776e61626c653a2063616c6c6572206973206e6f7420746865206f776e6572604082015260600190565b60008351611e548184602088016119a4565b835190830190611e688183602088016119a4565b01949350505050565b600060208284031215611e8357600080fd5b5051919050565b600060208284031215611e9c57600080fd5b815161110981611a3c565b60008219821115611eba57611eba611d8f565b500190565b60208082526032908201527f4552433732313a207472616e7366657220746f206e6f6e20455243373231526560408201527131b2b4bb32b91034b6b83632b6b2b73a32b960711b606082015260800190565b6000600019821415611f2557611f25611d8f565b5060010190565b634e487b7160e01b600052601260045260246000fd5b600082611f5157611f51611f2c565b500490565b600082611f6557611f65611f2c565b500690565b634e487b7160e01b600052603260045260246000fd5b6001600160a01b0385811682528416602082015260408101839052608060608201819052600090611fb3908301846119d0565b9695505050505050565b600060208284031215611fcf57600080fd5b81516111098161197156fe4d6574615472616e73616374696f6e2875696e74323536206e6f6e63652c616464726573732066726f6d2c62797465732066756e6374696f6e5369676e61747572652968747470733a2f2f647261676f6e7374726565746e66742e636f6d2f6170692f636f6e74726163742d6d65746168747470733a2f2f647261676f6e7374726565746e66742e636f6d2f6170692f647261676f6e2fa264697066735822122024d739548ffda079d47417ad500f689bbddc621663fe5f6d2f3204b15160a07064736f6c634300080b0033608060405234801561001057600080fd5b5061001a3361001f565b61006f565b600080546001600160a01b038381166001600160a01b0319831681178455604051919092169283917f8be0079c531659141344cd1fd0a4f28419497f9722a3daafe3b4186f6b6457e09190a35050565b6105998061007e6000396000f3fe6080604052600436106100555760003560e01c806351cff8d91461005a578063715018a61461007c5780638da5cb5b14610091578063e3a9db1a146100c3578063f2fde38b14610107578063f340fa0114610127575b600080fd5b34801561006657600080fd5b5061007a6100753660046104e4565b61013a565b005b34801561008857600080fd5b5061007a6101e1565b34801561009d57600080fd5b506100a661021c565b6040516001600160a01b0390911681526020015b60405180910390f35b3480156100cf57600080fd5b506100f96100de3660046104e4565b6001600160a01b031660009081526001602052604090205490565b6040519081526020016100ba565b34801561011357600080fd5b5061007a6101223660046104e4565b61022b565b61007a6101353660046104e4565b6102cb565b3361014361021c565b6001600160a01b0316146101725760405162461bcd60e51b815260040161016990610508565b60405180910390fd5b6001600160a01b038116600081815260016020526040812080549190559061019a9082610364565b816001600160a01b03167f7084f5476618d8e60b11ef0d7d3f06914655adb8793e28ff7f018d4c76d505d5826040516101d591815260200190565b60405180910390a25050565b336101ea61021c565b6001600160a01b0316146102105760405162461bcd60e51b815260040161016990610508565b61021a600061047f565b565b6000546001600160a01b031690565b3361023461021c565b6001600160a01b03161461025a5760405162461bcd60e51b815260040161016990610508565b6001600160a01b0381166102bf5760405162461bcd60e51b815260206004820152602660248201527f4f776e61626c653a206e6577206f776e657220697320746865207a65726f206160448201526564647265737360d01b6064820152608401610169565b6102c88161047f565b50565b336102d461021c565b6001600160a01b0316146102fa5760405162461bcd60e51b815260040161016990610508565b6001600160a01b03811660009081526001602052604081208054349283929161032490849061053d565b90915550506040518181526001600160a01b038316907f2da466a7b24304f47e87fa2e1e5a81b9831ce54fec19055ce277ca2f39ba42c4906020016101d5565b804710156103b45760405162461bcd60e51b815260206004820152601d60248201527f416464726573733a20696e73756666696369656e742062616c616e63650000006044820152606401610169565b6000826001600160a01b03168260405160006040518083038185875af1925050503d8060008114610401576040519150601f19603f3d011682016040523d82523d6000602084013e610406565b606091505b505090508061047a5760405162461bcd60e51b815260206004820152603a60248201527f416464726573733a20756e61626c6520746f2073656e642076616c75652c20726044820152791958da5c1a595b9d081b585e481a185d99481c995d995c9d195960321b6064820152608401610169565b505050565b600080546001600160a01b038381166001600160a01b0319831681178455604051919092169283917f8be0079c531659141344cd1fd0a4f28419497f9722a3daafe3b4186f6b6457e09190a35050565b6001600160a01b03811681146102c857600080fd5b6000602082840312156104f657600080fd5b8135610501816104cf565b9392505050565b6020808252818101527f4f776e61626c653a2063616c6c6572206973206e6f7420746865206f776e6572604082015260600190565b6000821982111561055e57634e487b7160e01b600052601160045260246000fd5b50019056fea2646970667358221220b71103a47761ee8891f21d1d0a83d406c2bdabb2b461116910a3f3a2691e9b9564736f6c634300080b0033454950373132446f6d61696e28737472696e67206e616d652c737472696e672076657273696f6e2c6164647265737320766572696679696e67436f6e74726163742c627974657333322073616c7429",
  "immutableReferences": {
    "111": [
      {
        "length": 32,
        "start": 3338
      },
      {
        "length": 32,
        "start": 5001
      }
    ]
  },
  "source": "// Contract based on [https://docs.openzeppelin.com/contracts/3.x/erc721](https://docs.openzeppelin.com/contracts/3.x/erc721)\n// SPDX-License-Identifier: MIT\npragma solidity ^0.8.0;\n\nimport \"./ERC721Tradable.sol\";\n\n/**\n * @title Creature\n * Creature - a contract for my non-fungible creatures.\n */\ncontract DragonStreetNFT is ERC721Tradable {\n    constructor(address _proxyRegistryAddress)\n        ERC721Tradable(\"DragonStreetNFT\", \"DSN\", _proxyRegistryAddress)\n    {}\n\n    function baseTokenURI() override public pure returns (string memory) {\n        return \"https://dragonstreetnft.com/api/dragon/\";\n    }\n\n    function contractURI() public pure returns (string memory) {\n        return \"https://dragonstreetnft.com/api/contract-meta\";\n    }\n}\n",
  "sourcePath": "C:\\Users\\halil\\Playground\\dragon-street\\contracts\\DragonStreetNFT.sol",
  "compiler": {
    "name": "solc",
    "version": "0.8.11+commit.d7f03943.Emscripten.clang"
  },
  "schemaVersion": "3.4.4",
  "updatedAt": "2022-02-01T21:11:07.829Z",
  "networkType": "ethereum",
  "devdoc": {
    "kind": "dev",
    "methods": {
      "approve(address,uint256)": {
        "details": "See {IERC721-approve}."
      },
      "balanceOf(address)": {
        "details": "See {IERC721-balanceOf}."
      },
      "getApproved(uint256)": {
        "details": "See {IERC721-getApproved}."
      },
      "mintTo(address)": {
        "details": "Mints a token to an address with a tokenURI.",
        "params": {
          "_to": "address of the future owner of the token"
        }
      },
      "name()": {
        "details": "See {IERC721Metadata-name}."
      },
      "owner()": {
        "details": "Returns the address of the current owner."
      },
      "ownerOf(uint256)": {
        "details": "See {IERC721-ownerOf}."
      },
      "payments(address)": {
        "details": "Returns the payments owed to an address.",
        "params": {
          "dest": "The creditor's address."
        }
      },
      "renounceOwnership()": {
        "details": "Leaves the contract without owner. It will not be possible to call `onlyOwner` functions anymore. Can only be called by the current owner. NOTE: Renouncing ownership will leave the contract without an owner, thereby removing any functionality that is only available to the owner."
      },
      "safeTransferFrom(address,address,uint256)": {
        "details": "See {IERC721-safeTransferFrom}."
      },
      "safeTransferFrom(address,address,uint256,bytes)": {
        "details": "See {IERC721-safeTransferFrom}."
      },
      "setApprovalForAll(address,bool)": {
        "details": "See {IERC721-setApprovalForAll}."
      },
      "supportsInterface(bytes4)": {
        "details": "See {IERC165-supportsInterface}."
      },
      "symbol()": {
        "details": "See {IERC721Metadata-symbol}."
      },
      "totalSupply()": {
        "details": "Returns the total tokens minted so far. 1 is always subtracted from the Counter since it tracks the next available tokenId."
      },
      "transferFrom(address,address,uint256)": {
        "details": "See {IERC721-transferFrom}."
      },
      "transferOwnership(address)": {
        "details": "Transfers ownership of the contract to a new account (`newOwner`). Can only be called by the current owner."
      },
      "withdrawPayments(address)": {
        "details": "Overridden in order to make it an onlyOwner function"
      }
    },
    "title": "Creature Creature - a contract for my non-fungible creatures.",
    "version": 1
  },
  "userdoc": {
    "kind": "user",
    "methods": {
      "isApprovedForAll(address,address)": {
        "notice": "Override isApprovedForAll to whitelist user's OpenSea proxy accounts to enable gas-less listings."
      }
    },
    "version": 1
  }
}