{
  "contractName": "DragonStreetNFT",
  "abi": [
    {
      "inputs": [
        {
          "internalType": "address",
          "name": "_proxyRegistryAddress",
          "type": "address"
        }
      ],
      "stateMutability": "nonpayable",
      "type": "constructor"
    },
    {
      "anonymous": false,
      "inputs": [
        {
          "indexed": true,
          "internalType": "address",
          "name": "owner",
          "type": "address"
        },
        {
          "indexed": true,
          "internalType": "address",
          "name": "approved",
          "type": "address"
        },
        {
          "indexed": true,
          "internalType": "uint256",
          "name": "tokenId",
          "type": "uint256"
        }
      ],
      "name": "Approval",
      "type": "event"
    },
    {
      "anonymous": false,
      "inputs": [
        {
          "indexed": true,
          "internalType": "address",
          "name": "owner",
          "type": "address"
        },
        {
          "indexed": true,
          "internalType": "address",
          "name": "operator",
          "type": "address"
        },
        {
          "indexed": false,
          "internalType": "bool",
          "name": "approved",
          "type": "bool"
        }
      ],
      "name": "ApprovalForAll",
      "type": "event"
    },
    {
      "anonymous": false,
      "inputs": [
        {
          "indexed": false,
          "internalType": "address",
          "name": "userAddress",
          "type": "address"
        },
        {
          "indexed": false,
          "internalType": "address payable",
          "name": "relayerAddress",
          "type": "address"
        },
        {
          "indexed": false,
          "internalType": "bytes",
          "name": "functionSignature",
          "type": "bytes"
        }
      ],
      "name": "MetaTransactionExecuted",
      "type": "event"
    },
    {
      "anonymous": false,
      "inputs": [
        {
          "indexed": true,
          "internalType": "address",
          "name": "previousOwner",
          "type": "address"
        },
        {
          "indexed": true,
          "internalType": "address",
          "name": "newOwner",
          "type": "address"
        }
      ],
      "name": "OwnershipTransferred",
      "type": "event"
    },
    {
      "anonymous": false,
      "inputs": [
        {
          "indexed": true,
          "internalType": "address",
          "name": "from",
          "type": "address"
        },
        {
          "indexed": true,
          "internalType": "address",
          "name": "to",
          "type": "address"
        },
        {
          "indexed": true,
          "internalType": "uint256",
          "name": "tokenId",
          "type": "uint256"
        }
      ],
      "name": "Transfer",
      "type": "event"
    },
    {
      "inputs": [],
      "name": "ERC712_VERSION",
      "outputs": [
        {
          "internalType": "string",
          "name": "",
          "type": "string"
        }
      ],
      "stateMutability": "view",
      "type": "function",
      "constant": true
    },
    {
      "inputs": [
        {
          "internalType": "address",
          "name": "to",
          "type": "address"
        },
        {
          "internalType": "uint256",
          "name": "tokenId",
          "type": "uint256"
        }
      ],
      "name": "approve",
      "outputs": [],
      "stateMutability": "nonpayable",
      "type": "function"
    },
    {
      "inputs": [
        {
          "internalType": "address",
          "name": "owner",
          "type": "address"
        }
      ],
      "name": "balanceOf",
      "outputs": [
        {
          "internalType": "uint256",
          "name": "",
          "type": "uint256"
        }
      ],
      "stateMutability": "view",
      "type": "function",
      "constant": true
    },
    {
      "inputs": [
        {
          "internalType": "address",
          "name": "userAddress",
          "type": "address"
        },
        {
          "internalType": "bytes",
          "name": "functionSignature",
          "type": "bytes"
        },
        {
          "internalType": "bytes32",
          "name": "sigR",
          "type": "bytes32"
        },
        {
          "internalType": "bytes32",
          "name": "sigS",
          "type": "bytes32"
        },
        {
          "internalType": "uint8",
          "name": "sigV",
          "type": "uint8"
        }
      ],
      "name": "executeMetaTransaction",
      "outputs": [
        {
          "internalType": "bytes",
          "name": "",
          "type": "bytes"
        }
      ],
      "stateMutability": "payable",
      "type": "function",
      "payable": true
    },
    {
      "inputs": [
        {
          "internalType": "uint256",
          "name": "tokenId",
          "type": "uint256"
        }
      ],
      "name": "getApproved",
      "outputs": [
        {
          "internalType": "address",
          "name": "",
          "type": "address"
        }
      ],
      "stateMutability": "view",
      "type": "function",
      "constant": true
    },
    {
      "inputs": [],
      "name": "getChainId",
      "outputs": [
        {
          "internalType": "uint256",
          "name": "",
          "type": "uint256"
        }
      ],
      "stateMutability": "view",
      "type": "function",
      "constant": true
    },
    {
      "inputs": [],
      "name": "getDomainSeperator",
      "outputs": [
        {
          "internalType": "bytes32",
          "name": "",
          "type": "bytes32"
        }
      ],
      "stateMutability": "view",
      "type": "function",
      "constant": true
    },
    {
      "inputs": [
        {
          "internalType": "address",
          "name": "user",
          "type": "address"
        }
      ],
      "name": "getNonce",
      "outputs": [
        {
          "internalType": "uint256",
          "name": "nonce",
          "type": "uint256"
        }
      ],
      "stateMutability": "view",
      "type": "function",
      "constant": true
    },
    {
      "inputs": [
        {
          "internalType": "address",
          "name": "owner",
          "type": "address"
        },
        {
          "internalType": "address",
          "name": "operator",
          "type": "address"
        }
      ],
      "name": "isApprovedForAll",
      "outputs": [
        {
          "internalType": "bool",
          "name": "",
          "type": "bool"
        }
      ],
      "stateMutability": "view",
      "type": "function",
      "constant": true
    },
    {
      "inputs": [
        {
          "internalType": "address",
          "name": "_to",
          "type": "address"
        }
      ],
      "name": "mintTo",
      "outputs": [],
      "stateMutability": "nonpayable",
      "type": "function"
    },
    {
      "inputs": [],
      "name": "name",
      "outputs": [
        {
          "internalType": "string",
          "name": "",
          "type": "string"
        }
      ],
      "stateMutability": "view",
      "type": "function",
      "constant": true
    },
    {
      "inputs": [],
      "name": "owner",
      "outputs": [
        {
          "internalType": "address",
          "name": "",
          "type": "address"
        }
      ],
      "stateMutability": "view",
      "type": "function",
      "constant": true
    },
    {
      "inputs": [
        {
          "internalType": "uint256",
          "name": "tokenId",
          "type": "uint256"
        }
      ],
      "name": "ownerOf",
      "outputs": [
        {
          "internalType": "address",
          "name": "",
          "type": "address"
        }
      ],
      "stateMutability": "view",
      "type": "function",
      "constant": true
    },
    {
      "inputs": [],
      "name": "renounceOwnership",
      "outputs": [],
      "stateMutability": "nonpayable",
      "type": "function"
    },
    {
      "inputs": [
        {
          "internalType": "address",
          "name": "from",
          "type": "address"
        },
        {
          "internalType": "address",
          "name": "to",
          "type": "address"
        },
        {
          "internalType": "uint256",
          "name": "tokenId",
          "type": "uint256"
        }
      ],
      "name": "safeTransferFrom",
      "outputs": [],
      "stateMutability": "nonpayable",
      "type": "function"
    },
    {
      "inputs": [
        {
          "internalType": "address",
          "name": "from",
          "type": "address"
        },
        {
          "internalType": "address",
          "name": "to",
          "type": "address"
        },
        {
          "internalType": "uint256",
          "name": "tokenId",
          "type": "uint256"
        },
        {
          "internalType": "bytes",
          "name": "_data",
          "type": "bytes"
        }
      ],
      "name": "safeTransferFrom",
      "outputs": [],
      "stateMutability": "nonpayable",
      "type": "function"
    },
    {
      "inputs": [
        {
          "internalType": "address",
          "name": "operator",
          "type": "address"
        },
        {
          "internalType": "bool",
          "name": "approved",
          "type": "bool"
        }
      ],
      "name": "setApprovalForAll",
      "outputs": [],
      "stateMutability": "nonpayable",
      "type": "function"
    },
    {
      "inputs": [
        {
          "internalType": "bytes4",
          "name": "interfaceId",
          "type": "bytes4"
        }
      ],
      "name": "supportsInterface",
      "outputs": [
        {
          "internalType": "bool",
          "name": "",
          "type": "bool"
        }
      ],
      "stateMutability": "view",
      "type": "function",
      "constant": true
    },
    {
      "inputs": [],
      "name": "symbol",
      "outputs": [
        {
          "internalType": "string",
          "name": "",
          "type": "string"
        }
      ],
      "stateMutability": "view",
      "type": "function",
      "constant": true
    },
    {
      "inputs": [
        {
          "internalType": "uint256",
          "name": "_tokenId",
          "type": "uint256"
        }
      ],
      "name": "tokenURI",
      "outputs": [
        {
          "internalType": "string",
          "name": "",
          "type": "string"
        }
      ],
      "stateMutability": "pure",
      "type": "function",
      "constant": true
    },
    {
      "inputs": [],
      "name": "totalSupply",
      "outputs": [
        {
          "internalType": "uint256",
          "name": "",
          "type": "uint256"
        }
      ],
      "stateMutability": "view",
      "type": "function",
      "constant": true
    },
    {
      "inputs": [
        {
          "internalType": "address",
          "name": "from",
          "type": "address"
        },
        {
          "internalType": "address",
          "name": "to",
          "type": "address"
        },
        {
          "internalType": "uint256",
          "name": "tokenId",
          "type": "uint256"
        }
      ],
      "name": "transferFrom",
      "outputs": [],
      "stateMutability": "nonpayable",
      "type": "function"
    },
    {
      "inputs": [
        {
          "internalType": "address",
          "name": "newOwner",
          "type": "address"
        }
      ],
      "name": "transferOwnership",
      "outputs": [],
      "stateMutability": "nonpayable",
      "type": "function"
    },
    {
      "inputs": [],
      "name": "baseTokenURI",
      "outputs": [
        {
          "internalType": "string",
          "name": "",
          "type": "string"
        }
      ],
      "stateMutability": "pure",
      "type": "function",
      "constant": true
    },
    {
      "inputs": [],
      "name": "contractURI",
      "outputs": [
        {
          "internalType": "string",
          "name": "",
          "type": "string"
        }
      ],
      "stateMutability": "pure",
      "type": "function",
      "constant": true
    }
  ],
  "bytecode": "0x60806040526006805460ff191690553480156200001b57600080fd5b50604051620022a7380380620022a78339810160408190526200003e916200039a565b6040518060400160405280600f81526020016e111c9859dbdb94dd1c99595d139195608a1b815250604051806040016040528060038152602001622229a760e91b81525082828281600090805190602001906200009d929190620002f4565b508051620000b3906001906020840190620002f4565b505050620000d0620000ca6200011860201b60201c565b62000134565b600b80546001600160a01b0319166001600160a01b03831617905562000103600a62000186602090811b62000d3617901c565b6200010e836200018f565b5050505062000409565b60006200012f620001f360201b62000d3f1760201c565b905090565b600980546001600160a01b038381166001600160a01b0319831681179093556040519116919082907f8be0079c531659141344cd1fd0a4f28419497f9722a3daafe3b4186f6b6457e090600090a35050565b80546001019055565b60065460ff1615620001d85760405162461bcd60e51b815260206004820152600e60248201526d185b1c9958591e481a5b9a5d195960921b604482015260640160405180910390fd5b620001e38162000252565b506006805460ff19166001179055565b6000333014156200024c57600080368080601f0160208091040260200160405190810160405280939291908181526020018383808284376000920191909152505050503601516001600160a01b031691506200024f9050565b50335b90565b6040518060800160405280604f815260200162002258604f9139805160209182012082519282019290922060408051808201825260018152603160f81b90840152805180840194909452838101919091527fc89efdaa54c0f20c7adf612882df0950f5a951637e0307cdcb4c672f298b8bc660608401523060808401524660a0808501919091528151808503909101815260c090930190528151910120600755565b8280546200030290620003cc565b90600052602060002090601f01602090048101928262000326576000855562000371565b82601f106200034157805160ff191683800117855562000371565b8280016001018555821562000371579182015b828111156200037157825182559160200191906001019062000354565b506200037f92915062000383565b5090565b5b808211156200037f576000815560010162000384565b600060208284031215620003ad57600080fd5b81516001600160a01b0381168114620003c557600080fd5b9392505050565b600181811c90821680620003e157607f821691505b602082108114156200040357634e487b7160e01b600052602260045260246000fd5b50919050565b611e3f80620004196000396000f3fe6080604052600436106101265760003560e01c806301ffc9a71461012b57806306fdde0314610160578063081812fc14610182578063095ea7b3146101af5780630c53c51c146101d15780630f7e5970146101e457806318160ddd1461021157806320379ee51461023457806323b872dd146102495780632d0335ab146102695780633408e4701461029f57806342842e0e146102b25780636352211e146102d257806370a08231146102f2578063715018a614610312578063755edd17146103275780638da5cb5b1461034757806395d89b411461035c578063a22cb46514610371578063b88d4fde14610391578063c87b56dd146103b1578063d547cfb7146103d1578063e8a3d485146103e6578063e985e9c5146103fb578063f2fde38b1461041b575b600080fd5b34801561013757600080fd5b5061014b61014636600461172a565b61043b565b60405190151581526020015b60405180910390f35b34801561016c57600080fd5b5061017561048d565b604051610157919061179f565b34801561018e57600080fd5b506101a261019d3660046117b2565b61051f565b60405161015791906117cb565b3480156101bb57600080fd5b506101cf6101ca3660046117f4565b6105ac565b005b6101756101df3660046118c2565b6106cf565b3480156101f057600080fd5b50610175604051806040016040528060018152602001603160f81b81525081565b34801561021d57600080fd5b506102266108b8565b604051908152602001610157565b34801561024057600080fd5b50600754610226565b34801561025557600080fd5b506101cf61026436600461193f565b6108d4565b34801561027557600080fd5b50610226610284366004611980565b6001600160a01b031660009081526008602052604090205490565b3480156102ab57600080fd5b5046610226565b3480156102be57600080fd5b506101cf6102cd36600461193f565b61090c565b3480156102de57600080fd5b506101a26102ed3660046117b2565b610927565b3480156102fe57600080fd5b5061022661030d366004611980565b61099e565b34801561031e57600080fd5b506101cf610a25565b34801561033357600080fd5b506101cf610342366004611980565b610a70565b34801561035357600080fd5b506101a2610ad8565b34801561036857600080fd5b50610175610ae7565b34801561037d57600080fd5b506101cf61038c36600461199d565b610af6565b34801561039d57600080fd5b506101cf6103ac3660046119db565b610b08565b3480156103bd57600080fd5b506101756103cc3660046117b2565b610b47565b3480156103dd57600080fd5b50610175610b81565b3480156103f257600080fd5b50610175610ba1565b34801561040757600080fd5b5061014b610416366004611a46565b610bc1565b34801561042757600080fd5b506101cf610436366004611980565b610c86565b60006001600160e01b031982166380ac58cd60e01b148061046c57506001600160e01b03198216635b5e139f60e01b145b8061048757506301ffc9a760e01b6001600160e01b03198316145b92915050565b60606000805461049c90611a74565b80601f01602080910402602001604051908101604052809291908181526020018280546104c890611a74565b80156105155780601f106104ea57610100808354040283529160200191610515565b820191906000526020600020905b8154815290600101906020018083116104f857829003601f168201915b5050505050905090565b600061052a82610d9c565b6105905760405162461bcd60e51b815260206004820152602c60248201527f4552433732313a20617070726f76656420717565727920666f72206e6f6e657860448201526b34b9ba32b73a103a37b5b2b760a11b60648201526084015b60405180910390fd5b506000908152600460205260409020546001600160a01b031690565b60006105b782610927565b9050806001600160a01b0316836001600160a01b031614156106255760405162461bcd60e51b815260206004820152602160248201527f4552433732313a20617070726f76616c20746f2063757272656e74206f776e656044820152603960f91b6064820152608401610587565b806001600160a01b0316610637610db9565b6001600160a01b03161480610653575061065381610416610db9565b6106c05760405162461bcd60e51b815260206004820152603860248201527f4552433732313a20617070726f76652063616c6c6572206973206e6f74206f776044820152771b995c881b9bdc88185c1c1c9bdd995908199bdc88185b1b60421b6064820152608401610587565b6106ca8383610dc3565b505050565b60408051606081810183526001600160a01b0388166000818152600860209081529085902054845283015291810186905261070d8782878787610e31565b6107635760405162461bcd60e51b815260206004820152602160248201527f5369676e657220616e64207369676e617475726520646f206e6f74206d6174636044820152600d60fb1b6064820152608401610587565b6001600160a01b038716600090815260086020526040902054610787906001610f21565b6001600160a01b0388166000908152600860205260409081902091909155517f5845892132946850460bff5a0083f71031bc5bf9aadcd40f1de79423eac9b10b906107d790899033908a90611aaf565b60405180910390a1600080306001600160a01b0316888a6040516020016107ff929190611ae4565b60408051601f198184030181529082905261081991611b16565b6000604051808303816000865af19150503d8060008114610856576040519150601f19603f3d011682016040523d82523d6000602084013e61085b565b606091505b5091509150816108ac5760405162461bcd60e51b815260206004820152601c60248201527b119d5b98dd1a5bdb8818d85b1b081b9bdd081cdd58d8d95cdcd99d5b60221b6044820152606401610587565b98975050505050505050565b600060016108c5600a5490565b6108cf9190611b48565b905090565b6108e56108df610db9565b82610f34565b6109015760405162461bcd60e51b815260040161058790611b5f565b6106ca838383610ff6565b6106ca83838360405180602001604052806000815250610b08565b6000818152600260205260408120546001600160a01b0316806104875760405162461bcd60e51b815260206004820152602960248201527f4552433732313a206f776e657220717565727920666f72206e6f6e657869737460448201526832b73a103a37b5b2b760b91b6064820152608401610587565b60006001600160a01b038216610a095760405162461bcd60e51b815260206004820152602a60248201527f4552433732313a2062616c616e636520717565727920666f7220746865207a65604482015269726f206164647265737360b01b6064820152608401610587565b506001600160a01b031660009081526003602052604090205490565b610a2d610db9565b6001600160a01b0316610a3e610ad8565b6001600160a01b031614610a645760405162461bcd60e51b815260040161058790611bb0565b610a6e6000611196565b565b610a78610db9565b6001600160a01b0316610a89610ad8565b6001600160a01b031614610aaf5760405162461bcd60e51b815260040161058790611bb0565b6000610aba600a5490565b9050610aca600a80546001019055565b610ad482826111e8565b5050565b6009546001600160a01b031690565b60606001805461049c90611a74565b610ad4610b01610db9565b8383611202565b610b19610b13610db9565b83610f34565b610b355760405162461bcd60e51b815260040161058790611b5f565b610b41848484846112cd565b50505050565b6060610b51610b81565b610b5a83611300565b604051602001610b6b929190611be5565b6040516020818303038152906040529050919050565b6060604051806060016040528060278152602001611de360279139905090565b60606040518060600160405280603b8152602001611d65603b9139905090565b600b5460405163c455279160e01b81526000916001600160a01b039081169190841690829063c455279190610bfa9088906004016117cb565b602060405180830381865afa158015610c17573d6000803e3d6000fd5b505050506040513d601f19601f82011682018060405250810190610c3b9190611c14565b6001600160a01b03161415610c54576001915050610487565b6001600160a01b0380851660009081526005602090815260408083209387168352929052205460ff165b949350505050565b610c8e610db9565b6001600160a01b0316610c9f610ad8565b6001600160a01b031614610cc55760405162461bcd60e51b815260040161058790611bb0565b6001600160a01b038116610d2a5760405162461bcd60e51b815260206004820152602660248201527f4f776e61626c653a206e6577206f776e657220697320746865207a65726f206160448201526564647265737360d01b6064820152608401610587565b610d3381611196565b50565b80546001019055565b600033301415610d9657600080368080601f0160208091040260200160405190810160405280939291908181526020018383808284376000920191909152505050503601516001600160a01b03169150610d999050565b50335b90565b6000908152600260205260409020546001600160a01b0316151590565b60006108cf610d3f565b600081815260046020526040902080546001600160a01b0319166001600160a01b0384169081179091558190610df882610927565b6001600160a01b03167f8c5be1e5ebec7d5bd14f71427d1e84f3dd0314c0f7b2291e5b200ac8c7c3b92560405160405180910390a45050565b60006001600160a01b038616610e975760405162461bcd60e51b815260206004820152602560248201527f4e61746976654d6574615472616e73616374696f6e3a20494e56414c49445f5360448201526424a3a722a960d91b6064820152608401610587565b6001610eaa610ea5876113fd565b61147a565b6040805160008152602081018083529290925260ff851690820152606081018690526080810185905260a0016020604051602081039080840390855afa158015610ef8573d6000803e3d6000fd5b505050602060405103516001600160a01b0316866001600160a01b031614905095945050505050565b6000610f2d8284611c31565b9392505050565b6000610f3f82610d9c565b610fa05760405162461bcd60e51b815260206004820152602c60248201527f4552433732313a206f70657261746f7220717565727920666f72206e6f6e657860448201526b34b9ba32b73a103a37b5b2b760a11b6064820152608401610587565b6000610fab83610927565b9050806001600160a01b0316846001600160a01b03161480610fe65750836001600160a01b0316610fdb8461051f565b6001600160a01b0316145b80610c7e5750610c7e8185610bc1565b826001600160a01b031661100982610927565b6001600160a01b0316146110715760405162461bcd60e51b815260206004820152602960248201527f4552433732313a207472616e73666572206f6620746f6b656e2074686174206960448201526839903737ba1037bbb760b91b6064820152608401610587565b6001600160a01b0382166110d35760405162461bcd60e51b8152602060048201526024808201527f4552433732313a207472616e7366657220746f20746865207a65726f206164646044820152637265737360e01b6064820152608401610587565b6110de600082610dc3565b6001600160a01b0383166000908152600360205260408120805460019290611107908490611b48565b90915550506001600160a01b0382166000908152600360205260408120805460019290611135908490611c31565b909155505060008181526002602052604080822080546001600160a01b0319166001600160a01b0386811691821790925591518493918716917fddf252ad1be2c89b69c2b068fc378daa952ba7f163c4a11628f55a4df523b3ef91a4505050565b600980546001600160a01b038381166001600160a01b0319831681179093556040519116919082907f8be0079c531659141344cd1fd0a4f28419497f9722a3daafe3b4186f6b6457e090600090a35050565b610ad48282604051806020016040528060008152506114aa565b816001600160a01b0316836001600160a01b031614156112605760405162461bcd60e51b815260206004820152601960248201527822a9219b99189d1030b8383937bb32903a379031b0b63632b960391b6044820152606401610587565b6001600160a01b03838116600081815260056020908152604080832094871680845294825291829020805460ff191686151590811790915591519182527f17307eab39ab6107e8899845ad3d59bd9653f200f220920489ca2b5937696c31910160405180910390a3505050565b6112d8848484610ff6565b6112e4848484846114dd565b610b415760405162461bcd60e51b815260040161058790611c49565b6060816113245750506040805180820190915260018152600360fc1b602082015290565b8160005b811561134e578061133881611c9b565b91506113479050600a83611ccc565b9150611328565b6000816001600160401b0381111561136857611368611820565b6040519080825280601f01601f191660200182016040528015611392576020820181803683370190505b5090505b8415610c7e576113a7600183611b48565b91506113b4600a86611ce0565b6113bf906030611c31565b60f81b8183815181106113d4576113d4611cf4565b60200101906001600160f81b031916908160001a9053506113f6600a86611ccc565b9450611396565b6000604051806080016040528060438152602001611da0604391398051602091820120835184830151604080870151805190860120905161145d950193845260208401929092526001600160a01b03166040830152606082015260800190565b604051602081830303815290604052805190602001209050919050565b600061148560075490565b60405161190160f01b602082015260228101919091526042810183905260620161145d565b6114b483836115e2565b6114c160008484846114dd565b6106ca5760405162461bcd60e51b815260040161058790611c49565b60006001600160a01b0384163b156115d757836001600160a01b031663150b7a02611506610db9565b8786866040518563ffffffff1660e01b81526004016115289493929190611d0a565b6020604051808303816000875af1925050508015611563575060408051601f3d908101601f1916820190925261156091810190611d47565b60015b6115bd573d808015611591576040519150601f19603f3d011682016040523d82523d6000602084013e611596565b606091505b5080516115b55760405162461bcd60e51b815260040161058790611c49565b805181602001fd5b6001600160e01b031916630a85bd0160e11b149050610c7e565b506001949350505050565b6001600160a01b0382166116385760405162461bcd60e51b815260206004820181905260248201527f4552433732313a206d696e7420746f20746865207a65726f20616464726573736044820152606401610587565b61164181610d9c565b1561168d5760405162461bcd60e51b815260206004820152601c60248201527b115490cdcc8c4e881d1bdad95b88185b1c9958591e481b5a5b9d195960221b6044820152606401610587565b6001600160a01b03821660009081526003602052604081208054600192906116b6908490611c31565b909155505060008181526002602052604080822080546001600160a01b0319166001600160a01b03861690811790915590518392907fddf252ad1be2c89b69c2b068fc378daa952ba7f163c4a11628f55a4df523b3ef908290a45050565b6001600160e01b031981168114610d3357600080fd5b60006020828403121561173c57600080fd5b8135610f2d81611714565b60005b8381101561176257818101518382015260200161174a565b83811115610b415750506000910152565b6000815180845261178b816020860160208601611747565b601f01601f19169290920160200192915050565b602081526000610f2d6020830184611773565b6000602082840312156117c457600080fd5b5035919050565b6001600160a01b0391909116815260200190565b6001600160a01b0381168114610d3357600080fd5b6000806040838503121561180757600080fd5b8235611812816117df565b946020939093013593505050565b634e487b7160e01b600052604160045260246000fd5b600082601f83011261184757600080fd5b81356001600160401b038082111561186157611861611820565b604051601f8301601f19908116603f0116810190828211818310171561188957611889611820565b816040528381528660208588010111156118a257600080fd5b836020870160208301376000602085830101528094505050505092915050565b600080600080600060a086880312156118da57600080fd5b85356118e5816117df565b945060208601356001600160401b0381111561190057600080fd5b61190c88828901611836565b9450506040860135925060608601359150608086013560ff8116811461193157600080fd5b809150509295509295909350565b60008060006060848603121561195457600080fd5b833561195f816117df565b9250602084013561196f816117df565b929592945050506040919091013590565b60006020828403121561199257600080fd5b8135610f2d816117df565b600080604083850312156119b057600080fd5b82356119bb816117df565b9150602083013580151581146119d057600080fd5b809150509250929050565b600080600080608085870312156119f157600080fd5b84356119fc816117df565b93506020850135611a0c816117df565b92506040850135915060608501356001600160401b03811115611a2e57600080fd5b611a3a87828801611836565b91505092959194509250565b60008060408385031215611a5957600080fd5b8235611a64816117df565b915060208301356119d0816117df565b600181811c90821680611a8857607f821691505b60208210811415611aa957634e487b7160e01b600052602260045260246000fd5b50919050565b6001600160a01b03848116825283166020820152606060408201819052600090611adb90830184611773565b95945050505050565b60008351611af6818460208801611747565b60609390931b6001600160601b0319169190920190815260140192915050565b60008251611b28818460208701611747565b9190910192915050565b634e487b7160e01b600052601160045260246000fd5b600082821015611b5a57611b5a611b32565b500390565b60208082526031908201527f4552433732313a207472616e736665722063616c6c6572206973206e6f74206f6040820152701ddb995c881b9bdc88185c1c1c9bdd9959607a1b606082015260800190565b6020808252818101527f4f776e61626c653a2063616c6c6572206973206e6f7420746865206f776e6572604082015260600190565b60008351611bf7818460208801611747565b835190830190611c0b818360208801611747565b01949350505050565b600060208284031215611c2657600080fd5b8151610f2d816117df565b60008219821115611c4457611c44611b32565b500190565b60208082526032908201527f4552433732313a207472616e7366657220746f206e6f6e20455243373231526560408201527131b2b4bb32b91034b6b83632b6b2b73a32b960711b606082015260800190565b6000600019821415611caf57611caf611b32565b5060010190565b634e487b7160e01b600052601260045260246000fd5b600082611cdb57611cdb611cb6565b500490565b600082611cef57611cef611cb6565b500690565b634e487b7160e01b600052603260045260246000fd5b6001600160a01b0385811682528416602082015260408101839052608060608201819052600090611d3d90830184611773565b9695505050505050565b600060208284031215611d5957600080fd5b8151610f2d8161171456fe68747470733a2f2f6372656174757265732d6170692e6f70656e7365612e696f2f636f6e74726163742f6f70656e7365612d6372656174757265734d6574615472616e73616374696f6e2875696e74323536206e6f6e63652c616464726573732066726f6d2c62797465732066756e6374696f6e5369676e61747572652968747470733a2f2f647261676f6e7374726565746e66742e636f6d2f6170692f647261676f6e2fa26469706673582212202ccc6d55cf2dd11ef79bc1b843694747d66f332e19f318e738dd54cc85a5cdf564736f6c634300080b0033454950373132446f6d61696e28737472696e67206e616d652c737472696e672076657273696f6e2c6164647265737320766572696679696e67436f6e74726163742c627974657333322073616c7429",
  "immutableReferences": {},
  "source": "// Contract based on [https://docs.openzeppelin.com/contracts/3.x/erc721](https://docs.openzeppelin.com/contracts/3.x/erc721)\n// SPDX-License-Identifier: MIT\npragma solidity ^0.8.0;\n\nimport \"./ERC721Tradable.sol\";\n\n/**\n * @title Creature\n * Creature - a contract for my non-fungible creatures.\n */\ncontract DragonStreetNFT is ERC721Tradable {\n    constructor(address _proxyRegistryAddress)\n        ERC721Tradable(\"DragonStreetNFT\", \"DSN\", _proxyRegistryAddress)\n    {}\n\n    function baseTokenURI() override public pure returns (string memory) {\n        // return \"https://creatures-api.opensea.io/api/creature/\";\n        return \"https://dragonstreetnft.com/api/dragon/\";\n    }\n\n    function contractURI() public pure returns (string memory) {\n        return \"https://creatures-api.opensea.io/contract/opensea-creatures\";\n    }\n}\n",
  "sourcePath": "C:\\Users\\halil\\Playground\\dragon-street\\contracts\\DragonStreetNFT.sol",
  "compiler": {
    "name": "solc",
    "version": "0.8.11+commit.d7f03943.Emscripten.clang"
  },
  "schemaVersion": "3.4.4",
  "updatedAt": "2022-01-16T13:36:22.319Z",
  "networkType": "ethereum",
  "devdoc": {
    "kind": "dev",
    "methods": {
      "approve(address,uint256)": {
        "details": "See {IERC721-approve}."
      },
      "balanceOf(address)": {
        "details": "See {IERC721-balanceOf}."
      },
      "getApproved(uint256)": {
        "details": "See {IERC721-getApproved}."
      },
      "mintTo(address)": {
        "details": "Mints a token to an address with a tokenURI.",
        "params": {
          "_to": "address of the future owner of the token"
        }
      },
      "name()": {
        "details": "See {IERC721Metadata-name}."
      },
      "owner()": {
        "details": "Returns the address of the current owner."
      },
      "ownerOf(uint256)": {
        "details": "See {IERC721-ownerOf}."
      },
      "renounceOwnership()": {
        "details": "Leaves the contract without owner. It will not be possible to call `onlyOwner` functions anymore. Can only be called by the current owner. NOTE: Renouncing ownership will leave the contract without an owner, thereby removing any functionality that is only available to the owner."
      },
      "safeTransferFrom(address,address,uint256)": {
        "details": "See {IERC721-safeTransferFrom}."
      },
      "safeTransferFrom(address,address,uint256,bytes)": {
        "details": "See {IERC721-safeTransferFrom}."
      },
      "setApprovalForAll(address,bool)": {
        "details": "See {IERC721-setApprovalForAll}."
      },
      "supportsInterface(bytes4)": {
        "details": "See {IERC165-supportsInterface}."
      },
      "symbol()": {
        "details": "See {IERC721Metadata-symbol}."
      },
      "totalSupply()": {
        "details": "Returns the total tokens minted so far. 1 is always subtracted from the Counter since it tracks the next available tokenId."
      },
      "transferFrom(address,address,uint256)": {
        "details": "See {IERC721-transferFrom}."
      },
      "transferOwnership(address)": {
        "details": "Transfers ownership of the contract to a new account (`newOwner`). Can only be called by the current owner."
      }
    },
    "title": "Creature Creature - a contract for my non-fungible creatures.",
    "version": 1
  },
  "userdoc": {
    "kind": "user",
    "methods": {
      "isApprovedForAll(address,address)": {
        "notice": "Override isApprovedForAll to whitelist user's OpenSea proxy accounts to enable gas-less listings."
      }
    },
    "version": 1
  }
}