{
  "contractName": "DragonStreetNFT",
  "abi": [
    {
      "inputs": [
        {
          "internalType": "address",
          "name": "_proxyRegistryAddress",
          "type": "address"
        }
      ],
      "stateMutability": "nonpayable",
      "type": "constructor"
    },
    {
      "anonymous": false,
      "inputs": [
        {
          "indexed": true,
          "internalType": "address",
          "name": "owner",
          "type": "address"
        },
        {
          "indexed": true,
          "internalType": "address",
          "name": "approved",
          "type": "address"
        },
        {
          "indexed": true,
          "internalType": "uint256",
          "name": "tokenId",
          "type": "uint256"
        }
      ],
      "name": "Approval",
      "type": "event"
    },
    {
      "anonymous": false,
      "inputs": [
        {
          "indexed": true,
          "internalType": "address",
          "name": "owner",
          "type": "address"
        },
        {
          "indexed": true,
          "internalType": "address",
          "name": "operator",
          "type": "address"
        },
        {
          "indexed": false,
          "internalType": "bool",
          "name": "approved",
          "type": "bool"
        }
      ],
      "name": "ApprovalForAll",
      "type": "event"
    },
    {
      "anonymous": false,
      "inputs": [
        {
          "indexed": false,
          "internalType": "address",
          "name": "userAddress",
          "type": "address"
        },
        {
          "indexed": false,
          "internalType": "address payable",
          "name": "relayerAddress",
          "type": "address"
        },
        {
          "indexed": false,
          "internalType": "bytes",
          "name": "functionSignature",
          "type": "bytes"
        }
      ],
      "name": "MetaTransactionExecuted",
      "type": "event"
    },
    {
      "anonymous": false,
      "inputs": [
        {
          "indexed": true,
          "internalType": "address",
          "name": "previousOwner",
          "type": "address"
        },
        {
          "indexed": true,
          "internalType": "address",
          "name": "newOwner",
          "type": "address"
        }
      ],
      "name": "OwnershipTransferred",
      "type": "event"
    },
    {
      "anonymous": false,
      "inputs": [
        {
          "indexed": true,
          "internalType": "address",
          "name": "from",
          "type": "address"
        },
        {
          "indexed": true,
          "internalType": "address",
          "name": "to",
          "type": "address"
        },
        {
          "indexed": true,
          "internalType": "uint256",
          "name": "tokenId",
          "type": "uint256"
        }
      ],
      "name": "Transfer",
      "type": "event"
    },
    {
      "inputs": [],
      "name": "ERC712_VERSION",
      "outputs": [
        {
          "internalType": "string",
          "name": "",
          "type": "string"
        }
      ],
      "stateMutability": "view",
      "type": "function",
      "constant": true
    },
    {
      "inputs": [
        {
          "internalType": "address",
          "name": "to",
          "type": "address"
        },
        {
          "internalType": "uint256",
          "name": "tokenId",
          "type": "uint256"
        }
      ],
      "name": "approve",
      "outputs": [],
      "stateMutability": "nonpayable",
      "type": "function"
    },
    {
      "inputs": [
        {
          "internalType": "address",
          "name": "owner",
          "type": "address"
        }
      ],
      "name": "balanceOf",
      "outputs": [
        {
          "internalType": "uint256",
          "name": "",
          "type": "uint256"
        }
      ],
      "stateMutability": "view",
      "type": "function",
      "constant": true
    },
    {
      "inputs": [
        {
          "internalType": "address",
          "name": "userAddress",
          "type": "address"
        },
        {
          "internalType": "bytes",
          "name": "functionSignature",
          "type": "bytes"
        },
        {
          "internalType": "bytes32",
          "name": "sigR",
          "type": "bytes32"
        },
        {
          "internalType": "bytes32",
          "name": "sigS",
          "type": "bytes32"
        },
        {
          "internalType": "uint8",
          "name": "sigV",
          "type": "uint8"
        }
      ],
      "name": "executeMetaTransaction",
      "outputs": [
        {
          "internalType": "bytes",
          "name": "",
          "type": "bytes"
        }
      ],
      "stateMutability": "payable",
      "type": "function",
      "payable": true
    },
    {
      "inputs": [
        {
          "internalType": "uint256",
          "name": "tokenId",
          "type": "uint256"
        }
      ],
      "name": "getApproved",
      "outputs": [
        {
          "internalType": "address",
          "name": "",
          "type": "address"
        }
      ],
      "stateMutability": "view",
      "type": "function",
      "constant": true
    },
    {
      "inputs": [],
      "name": "getChainId",
      "outputs": [
        {
          "internalType": "uint256",
          "name": "",
          "type": "uint256"
        }
      ],
      "stateMutability": "view",
      "type": "function",
      "constant": true
    },
    {
      "inputs": [],
      "name": "getDomainSeperator",
      "outputs": [
        {
          "internalType": "bytes32",
          "name": "",
          "type": "bytes32"
        }
      ],
      "stateMutability": "view",
      "type": "function",
      "constant": true
    },
    {
      "inputs": [
        {
          "internalType": "address",
          "name": "user",
          "type": "address"
        }
      ],
      "name": "getNonce",
      "outputs": [
        {
          "internalType": "uint256",
          "name": "nonce",
          "type": "uint256"
        }
      ],
      "stateMutability": "view",
      "type": "function",
      "constant": true
    },
    {
      "inputs": [
        {
          "internalType": "address",
          "name": "owner",
          "type": "address"
        },
        {
          "internalType": "address",
          "name": "operator",
          "type": "address"
        }
      ],
      "name": "isApprovedForAll",
      "outputs": [
        {
          "internalType": "bool",
          "name": "",
          "type": "bool"
        }
      ],
      "stateMutability": "view",
      "type": "function",
      "constant": true
    },
    {
      "inputs": [
        {
          "internalType": "address",
          "name": "_to",
          "type": "address"
        }
      ],
      "name": "mintTo",
      "outputs": [],
      "stateMutability": "nonpayable",
      "type": "function"
    },
    {
      "inputs": [],
      "name": "name",
      "outputs": [
        {
          "internalType": "string",
          "name": "",
          "type": "string"
        }
      ],
      "stateMutability": "view",
      "type": "function",
      "constant": true
    },
    {
      "inputs": [],
      "name": "owner",
      "outputs": [
        {
          "internalType": "address",
          "name": "",
          "type": "address"
        }
      ],
      "stateMutability": "view",
      "type": "function",
      "constant": true
    },
    {
      "inputs": [
        {
          "internalType": "uint256",
          "name": "tokenId",
          "type": "uint256"
        }
      ],
      "name": "ownerOf",
      "outputs": [
        {
          "internalType": "address",
          "name": "",
          "type": "address"
        }
      ],
      "stateMutability": "view",
      "type": "function",
      "constant": true
    },
    {
      "inputs": [],
      "name": "renounceOwnership",
      "outputs": [],
      "stateMutability": "nonpayable",
      "type": "function"
    },
    {
      "inputs": [
        {
          "internalType": "address",
          "name": "from",
          "type": "address"
        },
        {
          "internalType": "address",
          "name": "to",
          "type": "address"
        },
        {
          "internalType": "uint256",
          "name": "tokenId",
          "type": "uint256"
        }
      ],
      "name": "safeTransferFrom",
      "outputs": [],
      "stateMutability": "nonpayable",
      "type": "function"
    },
    {
      "inputs": [
        {
          "internalType": "address",
          "name": "from",
          "type": "address"
        },
        {
          "internalType": "address",
          "name": "to",
          "type": "address"
        },
        {
          "internalType": "uint256",
          "name": "tokenId",
          "type": "uint256"
        },
        {
          "internalType": "bytes",
          "name": "_data",
          "type": "bytes"
        }
      ],
      "name": "safeTransferFrom",
      "outputs": [],
      "stateMutability": "nonpayable",
      "type": "function"
    },
    {
      "inputs": [
        {
          "internalType": "address",
          "name": "operator",
          "type": "address"
        },
        {
          "internalType": "bool",
          "name": "approved",
          "type": "bool"
        }
      ],
      "name": "setApprovalForAll",
      "outputs": [],
      "stateMutability": "nonpayable",
      "type": "function"
    },
    {
      "inputs": [
        {
          "internalType": "bytes4",
          "name": "interfaceId",
          "type": "bytes4"
        }
      ],
      "name": "supportsInterface",
      "outputs": [
        {
          "internalType": "bool",
          "name": "",
          "type": "bool"
        }
      ],
      "stateMutability": "view",
      "type": "function",
      "constant": true
    },
    {
      "inputs": [],
      "name": "symbol",
      "outputs": [
        {
          "internalType": "string",
          "name": "",
          "type": "string"
        }
      ],
      "stateMutability": "view",
      "type": "function",
      "constant": true
    },
    {
      "inputs": [
        {
          "internalType": "uint256",
          "name": "_tokenId",
          "type": "uint256"
        }
      ],
      "name": "tokenURI",
      "outputs": [
        {
          "internalType": "string",
          "name": "",
          "type": "string"
        }
      ],
      "stateMutability": "pure",
      "type": "function",
      "constant": true
    },
    {
      "inputs": [],
      "name": "totalSupply",
      "outputs": [
        {
          "internalType": "uint256",
          "name": "",
          "type": "uint256"
        }
      ],
      "stateMutability": "view",
      "type": "function",
      "constant": true
    },
    {
      "inputs": [
        {
          "internalType": "address",
          "name": "from",
          "type": "address"
        },
        {
          "internalType": "address",
          "name": "to",
          "type": "address"
        },
        {
          "internalType": "uint256",
          "name": "tokenId",
          "type": "uint256"
        }
      ],
      "name": "transferFrom",
      "outputs": [],
      "stateMutability": "nonpayable",
      "type": "function"
    },
    {
      "inputs": [
        {
          "internalType": "address",
          "name": "newOwner",
          "type": "address"
        }
      ],
      "name": "transferOwnership",
      "outputs": [],
      "stateMutability": "nonpayable",
      "type": "function"
    },
    {
      "inputs": [],
      "name": "baseTokenURI",
      "outputs": [
        {
          "internalType": "string",
          "name": "",
          "type": "string"
        }
      ],
      "stateMutability": "pure",
      "type": "function",
      "constant": true
    },
    {
      "inputs": [],
      "name": "contractURI",
      "outputs": [
        {
          "internalType": "string",
          "name": "",
          "type": "string"
        }
      ],
      "stateMutability": "pure",
      "type": "function",
      "constant": true
    }
  ],
  "bytecode": "0x60806040526006805460ff191690553480156200001b57600080fd5b50604051620022cf380380620022cf8339810160408190526200003e916200039a565b6040518060400160405280600f81526020016e111c9859dbdb94dd1c99595d139195608a1b815250604051806040016040528060038152602001622229a760e91b81525082828281600090805190602001906200009d929190620002f4565b508051620000b3906001906020840190620002f4565b505050620000d0620000ca6200011860201b60201c565b62000134565b600b80546001600160a01b0319166001600160a01b03831617905562000103600a62000186602090811b62000e2217901c565b6200010e836200018f565b5050505062000409565b60006200012f620001f360201b62000e2b1760201c565b905090565b600980546001600160a01b038381166001600160a01b0319831681179093556040519116919082907f8be0079c531659141344cd1fd0a4f28419497f9722a3daafe3b4186f6b6457e090600090a35050565b80546001019055565b60065460ff1615620001d85760405162461bcd60e51b815260206004820152600e60248201526d185b1c9958591e481a5b9a5d195960921b604482015260640160405180910390fd5b620001e38162000252565b506006805460ff19166001179055565b6000333014156200024c57600080368080601f0160208091040260200160405190810160405280939291908181526020018383808284376000920191909152505050503601516001600160a01b031691506200024f9050565b50335b90565b6040518060800160405280604f815260200162002280604f9139805160209182012082519282019290922060408051808201825260018152603160f81b90840152805180840194909452838101919091527fc89efdaa54c0f20c7adf612882df0950f5a951637e0307cdcb4c672f298b8bc660608401523060808401524660a0808501919091528151808503909101815260c090930190528151910120600755565b8280546200030290620003cc565b90600052602060002090601f01602090048101928262000326576000855562000371565b82601f106200034157805160ff191683800117855562000371565b8280016001018555821562000371579182015b828111156200037157825182559160200191906001019062000354565b506200037f92915062000383565b5090565b5b808211156200037f576000815560010162000384565b600060208284031215620003ad57600080fd5b81516001600160a01b0381168114620003c557600080fd5b9392505050565b600181811c90821680620003e157607f821691505b602082108114156200040357634e487b7160e01b600052602260045260246000fd5b50919050565b611e6780620004196000396000f3fe6080604052600436106101265760003560e01c806301ffc9a71461012b57806306fdde0314610160578063081812fc14610182578063095ea7b3146101af5780630c53c51c146101d15780630f7e5970146101e457806318160ddd1461021157806320379ee51461023457806323b872dd146102495780632d0335ab146102695780633408e4701461029f57806342842e0e146102b25780636352211e146102d257806370a08231146102f2578063715018a614610312578063755edd17146103275780638da5cb5b1461034757806395d89b411461035c578063a22cb46514610371578063b88d4fde14610391578063c87b56dd146103b1578063d547cfb7146103d1578063e8a3d485146103e6578063e985e9c5146103fb578063f2fde38b1461041b575b600080fd5b34801561013757600080fd5b5061014b61014636600461174b565b61043b565b60405190151581526020015b60405180910390f35b34801561016c57600080fd5b5061017561048d565b60405161015791906117c0565b34801561018e57600080fd5b506101a261019d3660046117d3565b61051f565b60405161015791906117ec565b3480156101bb57600080fd5b506101cf6101ca366004611815565b6105ac565b005b6101756101df3660046118e3565b6106cf565b3480156101f057600080fd5b50610175604051806040016040528060018152602001603160f81b81525081565b34801561021d57600080fd5b506102266108b8565b604051908152602001610157565b34801561024057600080fd5b50600754610226565b34801561025557600080fd5b506101cf610264366004611960565b6108d4565b34801561027557600080fd5b506102266102843660046119a1565b6001600160a01b031660009081526008602052604090205490565b3480156102ab57600080fd5b5046610226565b3480156102be57600080fd5b506101cf6102cd366004611960565b61090c565b3480156102de57600080fd5b506101a26102ed3660046117d3565b610927565b3480156102fe57600080fd5b5061022661030d3660046119a1565b61099e565b34801561031e57600080fd5b506101cf610a25565b34801561033357600080fd5b506101cf6103423660046119a1565b610a70565b34801561035357600080fd5b506101a2610ad8565b34801561036857600080fd5b50610175610ae7565b34801561037d57600080fd5b506101cf61038c3660046119be565b610af6565b34801561039d57600080fd5b506101cf6103ac3660046119fc565b610bf4565b3480156103bd57600080fd5b506101756103cc3660046117d3565b610c33565b3480156103dd57600080fd5b50610175610c6d565b3480156103f257600080fd5b50610175610c8d565b34801561040757600080fd5b5061014b610416366004611a67565b610cad565b34801561042757600080fd5b506101cf6104363660046119a1565b610d72565b60006001600160e01b031982166380ac58cd60e01b148061046c57506001600160e01b03198216635b5e139f60e01b145b8061048757506301ffc9a760e01b6001600160e01b03198316145b92915050565b60606000805461049c90611a95565b80601f01602080910402602001604051908101604052809291908181526020018280546104c890611a95565b80156105155780601f106104ea57610100808354040283529160200191610515565b820191906000526020600020905b8154815290600101906020018083116104f857829003601f168201915b5050505050905090565b600061052a82610e88565b6105905760405162461bcd60e51b815260206004820152602c60248201527f4552433732313a20617070726f76656420717565727920666f72206e6f6e657860448201526b34b9ba32b73a103a37b5b2b760a11b60648201526084015b60405180910390fd5b506000908152600460205260409020546001600160a01b031690565b60006105b782610927565b9050806001600160a01b0316836001600160a01b031614156106255760405162461bcd60e51b815260206004820152602160248201527f4552433732313a20617070726f76616c20746f2063757272656e74206f776e656044820152603960f91b6064820152608401610587565b806001600160a01b0316610637610ea5565b6001600160a01b03161480610653575061065381610416610ea5565b6106c05760405162461bcd60e51b815260206004820152603860248201527f4552433732313a20617070726f76652063616c6c6572206973206e6f74206f776044820152771b995c881b9bdc88185c1c1c9bdd995908199bdc88185b1b60421b6064820152608401610587565b6106ca8383610eaf565b505050565b60408051606081810183526001600160a01b0388166000818152600860209081529085902054845283015291810186905261070d8782878787610f1d565b6107635760405162461bcd60e51b815260206004820152602160248201527f5369676e657220616e64207369676e617475726520646f206e6f74206d6174636044820152600d60fb1b6064820152608401610587565b6001600160a01b03871660009081526008602052604090205461078790600161100d565b6001600160a01b0388166000908152600860205260409081902091909155517f5845892132946850460bff5a0083f71031bc5bf9aadcd40f1de79423eac9b10b906107d790899033908a90611ad0565b60405180910390a1600080306001600160a01b0316888a6040516020016107ff929190611b05565b60408051601f198184030181529082905261081991611b37565b6000604051808303816000865af19150503d8060008114610856576040519150601f19603f3d011682016040523d82523d6000602084013e61085b565b606091505b5091509150816108ac5760405162461bcd60e51b815260206004820152601c60248201527b119d5b98dd1a5bdb8818d85b1b081b9bdd081cdd58d8d95cdcd99d5b60221b6044820152606401610587565b98975050505050505050565b600060016108c5600a5490565b6108cf9190611b69565b905090565b6108e56108df610ea5565b82611020565b6109015760405162461bcd60e51b815260040161058790611b80565b6106ca8383836110e2565b6106ca83838360405180602001604052806000815250610bf4565b6000818152600260205260408120546001600160a01b0316806104875760405162461bcd60e51b815260206004820152602960248201527f4552433732313a206f776e657220717565727920666f72206e6f6e657869737460448201526832b73a103a37b5b2b760b91b6064820152608401610587565b60006001600160a01b038216610a095760405162461bcd60e51b815260206004820152602a60248201527f4552433732313a2062616c616e636520717565727920666f7220746865207a65604482015269726f206164647265737360b01b6064820152608401610587565b506001600160a01b031660009081526003602052604090205490565b610a2d610ea5565b6001600160a01b0316610a3e610ad8565b6001600160a01b031614610a645760405162461bcd60e51b815260040161058790611bd1565b610a6e6000611282565b565b610a78610ea5565b6001600160a01b0316610a89610ad8565b6001600160a01b031614610aaf5760405162461bcd60e51b815260040161058790611bd1565b6000610aba600a5490565b9050610aca600a80546001019055565b610ad482826112d4565b5050565b6009546001600160a01b031690565b60606001805461049c90611a95565b610afe610ea5565b6001600160a01b0316826001600160a01b03161415610b5b5760405162461bcd60e51b815260206004820152601960248201527822a9219b99189d1030b8383937bb32903a379031b0b63632b960391b6044820152606401610587565b8060056000610b68610ea5565b6001600160a01b03908116825260208083019390935260409182016000908120918716808252919093529120805460ff191692151592909217909155610bac610ea5565b6001600160a01b03167f17307eab39ab6107e8899845ad3d59bd9653f200f220920489ca2b5937696c3183604051610be8911515815260200190565b60405180910390a35050565b610c05610bff610ea5565b83611020565b610c215760405162461bcd60e51b815260040161058790611b80565b610c2d848484846112ee565b50505050565b6060610c3d610c6d565b610c4683611321565b604051602001610c57929190611c06565b6040516020818303038152906040529050919050565b60606040518060600160405280602e8152602001611e04602e9139905090565b60606040518060600160405280603b8152602001611d86603b9139905090565b600b5460405163c455279160e01b81526000916001600160a01b039081169190841690829063c455279190610ce69088906004016117ec565b602060405180830381865afa158015610d03573d6000803e3d6000fd5b505050506040513d601f19601f82011682018060405250810190610d279190611c35565b6001600160a01b03161415610d40576001915050610487565b6001600160a01b0380851660009081526005602090815260408083209387168352929052205460ff165b949350505050565b610d7a610ea5565b6001600160a01b0316610d8b610ad8565b6001600160a01b031614610db15760405162461bcd60e51b815260040161058790611bd1565b6001600160a01b038116610e165760405162461bcd60e51b815260206004820152602660248201527f4f776e61626c653a206e6577206f776e657220697320746865207a65726f206160448201526564647265737360d01b6064820152608401610587565b610e1f81611282565b50565b80546001019055565b600033301415610e8257600080368080601f0160208091040260200160405190810160405280939291908181526020018383808284376000920191909152505050503601516001600160a01b03169150610e859050565b50335b90565b6000908152600260205260409020546001600160a01b0316151590565b60006108cf610e2b565b600081815260046020526040902080546001600160a01b0319166001600160a01b0384169081179091558190610ee482610927565b6001600160a01b03167f8c5be1e5ebec7d5bd14f71427d1e84f3dd0314c0f7b2291e5b200ac8c7c3b92560405160405180910390a45050565b60006001600160a01b038616610f835760405162461bcd60e51b815260206004820152602560248201527f4e61746976654d6574615472616e73616374696f6e3a20494e56414c49445f5360448201526424a3a722a960d91b6064820152608401610587565b6001610f96610f918761141e565b61149b565b6040805160008152602081018083529290925260ff851690820152606081018690526080810185905260a0016020604051602081039080840390855afa158015610fe4573d6000803e3d6000fd5b505050602060405103516001600160a01b0316866001600160a01b031614905095945050505050565b60006110198284611c52565b9392505050565b600061102b82610e88565b61108c5760405162461bcd60e51b815260206004820152602c60248201527f4552433732313a206f70657261746f7220717565727920666f72206e6f6e657860448201526b34b9ba32b73a103a37b5b2b760a11b6064820152608401610587565b600061109783610927565b9050806001600160a01b0316846001600160a01b031614806110d25750836001600160a01b03166110c78461051f565b6001600160a01b0316145b80610d6a5750610d6a8185610cad565b826001600160a01b03166110f582610927565b6001600160a01b03161461115d5760405162461bcd60e51b815260206004820152602960248201527f4552433732313a207472616e73666572206f6620746f6b656e2074686174206960448201526839903737ba1037bbb760b91b6064820152608401610587565b6001600160a01b0382166111bf5760405162461bcd60e51b8152602060048201526024808201527f4552433732313a207472616e7366657220746f20746865207a65726f206164646044820152637265737360e01b6064820152608401610587565b6111ca600082610eaf565b6001600160a01b03831660009081526003602052604081208054600192906111f3908490611b69565b90915550506001600160a01b0382166000908152600360205260408120805460019290611221908490611c52565b909155505060008181526002602052604080822080546001600160a01b0319166001600160a01b0386811691821790925591518493918716917fddf252ad1be2c89b69c2b068fc378daa952ba7f163c4a11628f55a4df523b3ef91a4505050565b600980546001600160a01b038381166001600160a01b0319831681179093556040519116919082907f8be0079c531659141344cd1fd0a4f28419497f9722a3daafe3b4186f6b6457e090600090a35050565b610ad48282604051806020016040528060008152506114cb565b6112f98484846110e2565b611305848484846114fe565b610c2d5760405162461bcd60e51b815260040161058790611c6a565b6060816113455750506040805180820190915260018152600360fc1b602082015290565b8160005b811561136f578061135981611cbc565b91506113689050600a83611ced565b9150611349565b6000816001600160401b0381111561138957611389611841565b6040519080825280601f01601f1916602001820160405280156113b3576020820181803683370190505b5090505b8415610d6a576113c8600183611b69565b91506113d5600a86611d01565b6113e0906030611c52565b60f81b8183815181106113f5576113f5611d15565b60200101906001600160f81b031916908160001a905350611417600a86611ced565b94506113b7565b6000604051806080016040528060438152602001611dc1604391398051602091820120835184830151604080870151805190860120905161147e950193845260208401929092526001600160a01b03166040830152606082015260800190565b604051602081830303815290604052805190602001209050919050565b60006114a660075490565b60405161190160f01b602082015260228101919091526042810183905260620161147e565b6114d58383611603565b6114e260008484846114fe565b6106ca5760405162461bcd60e51b815260040161058790611c6a565b60006001600160a01b0384163b156115f857836001600160a01b031663150b7a02611527610ea5565b8786866040518563ffffffff1660e01b81526004016115499493929190611d2b565b6020604051808303816000875af1925050508015611584575060408051601f3d908101601f1916820190925261158191810190611d68565b60015b6115de573d8080156115b2576040519150601f19603f3d011682016040523d82523d6000602084013e6115b7565b606091505b5080516115d65760405162461bcd60e51b815260040161058790611c6a565b805181602001fd5b6001600160e01b031916630a85bd0160e11b149050610d6a565b506001949350505050565b6001600160a01b0382166116595760405162461bcd60e51b815260206004820181905260248201527f4552433732313a206d696e7420746f20746865207a65726f20616464726573736044820152606401610587565b61166281610e88565b156116ae5760405162461bcd60e51b815260206004820152601c60248201527b115490cdcc8c4e881d1bdad95b88185b1c9958591e481b5a5b9d195960221b6044820152606401610587565b6001600160a01b03821660009081526003602052604081208054600192906116d7908490611c52565b909155505060008181526002602052604080822080546001600160a01b0319166001600160a01b03861690811790915590518392907fddf252ad1be2c89b69c2b068fc378daa952ba7f163c4a11628f55a4df523b3ef908290a45050565b6001600160e01b031981168114610e1f57600080fd5b60006020828403121561175d57600080fd5b813561101981611735565b60005b8381101561178357818101518382015260200161176b565b83811115610c2d5750506000910152565b600081518084526117ac816020860160208601611768565b601f01601f19169290920160200192915050565b6020815260006110196020830184611794565b6000602082840312156117e557600080fd5b5035919050565b6001600160a01b0391909116815260200190565b6001600160a01b0381168114610e1f57600080fd5b6000806040838503121561182857600080fd5b823561183381611800565b946020939093013593505050565b634e487b7160e01b600052604160045260246000fd5b600082601f83011261186857600080fd5b81356001600160401b038082111561188257611882611841565b604051601f8301601f19908116603f011681019082821181831017156118aa576118aa611841565b816040528381528660208588010111156118c357600080fd5b836020870160208301376000602085830101528094505050505092915050565b600080600080600060a086880312156118fb57600080fd5b853561190681611800565b945060208601356001600160401b0381111561192157600080fd5b61192d88828901611857565b9450506040860135925060608601359150608086013560ff8116811461195257600080fd5b809150509295509295909350565b60008060006060848603121561197557600080fd5b833561198081611800565b9250602084013561199081611800565b929592945050506040919091013590565b6000602082840312156119b357600080fd5b813561101981611800565b600080604083850312156119d157600080fd5b82356119dc81611800565b9150602083013580151581146119f157600080fd5b809150509250929050565b60008060008060808587031215611a1257600080fd5b8435611a1d81611800565b93506020850135611a2d81611800565b92506040850135915060608501356001600160401b03811115611a4f57600080fd5b611a5b87828801611857565b91505092959194509250565b60008060408385031215611a7a57600080fd5b8235611a8581611800565b915060208301356119f181611800565b600181811c90821680611aa957607f821691505b60208210811415611aca57634e487b7160e01b600052602260045260246000fd5b50919050565b6001600160a01b03848116825283166020820152606060408201819052600090611afc90830184611794565b95945050505050565b60008351611b17818460208801611768565b60609390931b6001600160601b0319169190920190815260140192915050565b60008251611b49818460208701611768565b9190910192915050565b634e487b7160e01b600052601160045260246000fd5b600082821015611b7b57611b7b611b53565b500390565b60208082526031908201527f4552433732313a207472616e736665722063616c6c6572206973206e6f74206f6040820152701ddb995c881b9bdc88185c1c1c9bdd9959607a1b606082015260800190565b6020808252818101527f4f776e61626c653a2063616c6c6572206973206e6f7420746865206f776e6572604082015260600190565b60008351611c18818460208801611768565b835190830190611c2c818360208801611768565b01949350505050565b600060208284031215611c4757600080fd5b815161101981611800565b60008219821115611c6557611c65611b53565b500190565b60208082526032908201527f4552433732313a207472616e7366657220746f206e6f6e20455243373231526560408201527131b2b4bb32b91034b6b83632b6b2b73a32b960711b606082015260800190565b6000600019821415611cd057611cd0611b53565b5060010190565b634e487b7160e01b600052601260045260246000fd5b600082611cfc57611cfc611cd7565b500490565b600082611d1057611d10611cd7565b500690565b634e487b7160e01b600052603260045260246000fd5b6001600160a01b0385811682528416602082015260408101839052608060608201819052600090611d5e90830184611794565b9695505050505050565b600060208284031215611d7a57600080fd5b81516110198161173556fe68747470733a2f2f6372656174757265732d6170692e6f70656e7365612e696f2f636f6e74726163742f6f70656e7365612d6372656174757265734d6574615472616e73616374696f6e2875696e74323536206e6f6e63652c616464726573732066726f6d2c62797465732066756e6374696f6e5369676e61747572652968747470733a2f2f6372656174757265732d6170692e6f70656e7365612e696f2f6170692f63726561747572652fa2646970667358221220caeffd57de253e1d3eeefd98a13b994c021fc0ba64d129d09444a3a90cb5caa564736f6c634300080b0033454950373132446f6d61696e28737472696e67206e616d652c737472696e672076657273696f6e2c6164647265737320766572696679696e67436f6e74726163742c627974657333322073616c7429",
  "immutableReferences": {},
  "source": "// Contract based on [https://docs.openzeppelin.com/contracts/3.x/erc721](https://docs.openzeppelin.com/contracts/3.x/erc721)\n// SPDX-License-Identifier: MIT\npragma solidity ^0.8.0;\n\nimport \"./ERC721Tradable.sol\";\n\n/**\n * @title Creature\n * Creature - a contract for my non-fungible creatures.\n */\ncontract DragonStreetNFT is ERC721Tradable {\n    constructor(address _proxyRegistryAddress)\n        ERC721Tradable(\"DragonStreetNFT\", \"DSN\", _proxyRegistryAddress)\n    {}\n\n    function baseTokenURI() override public pure returns (string memory) {\n        return \"https://creatures-api.opensea.io/api/creature/\";\n    }\n\n    function contractURI() public pure returns (string memory) {\n        return \"https://creatures-api.opensea.io/contract/opensea-creatures\";\n    }\n}\n",
  "sourcePath": "C:\\Users\\halil\\Playground\\dragon-street\\contracts\\DragonStreetNFT.sol",
  "compiler": {
    "name": "solc",
    "version": "0.8.11+commit.d7f03943.Emscripten.clang"
  },
  "schemaVersion": "3.4.4",
  "updatedAt": "2022-01-09T15:56:15.038Z",
  "networkType": "ethereum",
  "devdoc": {
    "kind": "dev",
    "methods": {
      "approve(address,uint256)": {
        "details": "See {IERC721-approve}."
      },
      "balanceOf(address)": {
        "details": "See {IERC721-balanceOf}."
      },
      "getApproved(uint256)": {
        "details": "See {IERC721-getApproved}."
      },
      "mintTo(address)": {
        "details": "Mints a token to an address with a tokenURI.",
        "params": {
          "_to": "address of the future owner of the token"
        }
      },
      "name()": {
        "details": "See {IERC721Metadata-name}."
      },
      "owner()": {
        "details": "Returns the address of the current owner."
      },
      "ownerOf(uint256)": {
        "details": "See {IERC721-ownerOf}."
      },
      "renounceOwnership()": {
        "details": "Leaves the contract without owner. It will not be possible to call `onlyOwner` functions anymore. Can only be called by the current owner. NOTE: Renouncing ownership will leave the contract without an owner, thereby removing any functionality that is only available to the owner."
      },
      "safeTransferFrom(address,address,uint256)": {
        "details": "See {IERC721-safeTransferFrom}."
      },
      "safeTransferFrom(address,address,uint256,bytes)": {
        "details": "See {IERC721-safeTransferFrom}."
      },
      "setApprovalForAll(address,bool)": {
        "details": "See {IERC721-setApprovalForAll}."
      },
      "supportsInterface(bytes4)": {
        "details": "See {IERC165-supportsInterface}."
      },
      "symbol()": {
        "details": "See {IERC721Metadata-symbol}."
      },
      "totalSupply()": {
        "details": "Returns the total tokens minted so far. 1 is always subtracted from the Counter since it tracks the next available tokenId."
      },
      "transferFrom(address,address,uint256)": {
        "details": "See {IERC721-transferFrom}."
      },
      "transferOwnership(address)": {
        "details": "Transfers ownership of the contract to a new account (`newOwner`). Can only be called by the current owner."
      }
    },
    "title": "Creature Creature - a contract for my non-fungible creatures.",
    "version": 1
  },
  "userdoc": {
    "kind": "user",
    "methods": {
      "isApprovedForAll(address,address)": {
        "notice": "Override isApprovedForAll to whitelist user's OpenSea proxy accounts to enable gas-less listings."
      }
    },
    "version": 1
  }
}