{
  "contractName": "ProxyRegistry",
  "abi": [
    {
      "inputs": [
        {
          "internalType": "address",
          "name": "",
          "type": "address"
        }
      ],
      "name": "proxies",
      "outputs": [
        {
          "internalType": "contract OwnableDelegateProxy",
          "name": "",
          "type": "address"
        }
      ],
      "stateMutability": "view",
      "type": "function"
    }
  ],
  "bytecode": "0x608060405234801561001057600080fd5b5060d38061001f6000396000f3fe6080604052348015600f57600080fd5b506004361060285760003560e01c8063c455279114602d575b600080fd5b60536038366004606f565b6000602081905290815260409020546001600160a01b031681565b6040516001600160a01b03909116815260200160405180910390f35b600060208284031215608057600080fd5b81356001600160a01b0381168114609657600080fd5b939250505056fea2646970667358221220b568af3998059a822dbed22ce0e4a9d97637c82bbec3b6d27eb46125bca4af7164736f6c634300080b0033",
  "immutableReferences": {},
  "source": "// SPDX-License-Identifier: MIT\n\npragma solidity ^0.8.0;\n\nimport \"@openzeppelin/contracts/token/ERC721/ERC721.sol\";\nimport \"@openzeppelin/contracts/access/Ownable.sol\";\nimport \"@openzeppelin/contracts/utils/Counters.sol\";\nimport \"@openzeppelin/contracts/utils/Strings.sol\";\nimport \"@openzeppelin/contracts/utils/math/SafeMath.sol\";\n\nimport \"./common/meta-transactions/ContentMixin.sol\";\nimport \"./common/meta-transactions/NativeMetaTransaction.sol\";\n\ncontract OwnableDelegateProxy {}\n\n/**\n * Used to delegate ownership of a contract to another address, to save on unneeded transactions to approve contract use for users\n */\ncontract ProxyRegistry {\n    mapping(address => OwnableDelegateProxy) public proxies;\n}\n\n/**\n * @title ERC721Tradable\n * ERC721Tradable - ERC721 contract that whitelists a trading address, and has minting functionality.\n */\nabstract contract ERC721Tradable is ERC721, ContextMixin, NativeMetaTransaction, Ownable {\n    using SafeMath for uint256;\n    using Counters for Counters.Counter;\n\n    Counters.Counter private _nextTokenId;\n    address proxyRegistryAddress;\n\n    constructor(\n        string memory _name,\n        string memory _symbol,\n        address _proxyRegistryAddress\n    ) ERC721(_name, _symbol) {\n        proxyRegistryAddress = _proxyRegistryAddress;\n        // nextTokenId is initialized to 1, since starting at 0 leads to higher gas cost for the first minter\n        _nextTokenId.increment();\n        _initializeEIP712(_name);\n    }\n\n    /**\n     * @dev Mints a token to an address with a tokenURI.\n     * @param _to address of the future owner of the token\n     */\n    function mintTo(address _to) public onlyOwner {\n        uint256 currentTokenId = _nextTokenId.current();\n        _nextTokenId.increment();\n        _safeMint(_to, currentTokenId);\n    }\n\n    /**\n        @dev Returns the total tokens minted so far.\n        1 is always subtracted from the Counter since it tracks the next available tokenId.\n     */\n    function totalSupply() public view returns (uint256) {\n        return _nextTokenId.current() - 1;\n    }\n\n    function baseTokenURI() virtual public pure returns (string memory);\n\n    function tokenURI(uint256 _tokenId) override public pure returns (string memory) {\n        return string(abi.encodePacked(baseTokenURI(), Strings.toString(_tokenId)));\n    }\n\n    /**\n     * Override isApprovedForAll to whitelist user's OpenSea proxy accounts to enable gas-less listings.\n     */\n    function isApprovedForAll(address owner, address operator)\n        override\n        public\n        view\n        returns (bool)\n    {\n        // Whitelist OpenSea proxy contract for easy trading.\n        ProxyRegistry proxyRegistry = ProxyRegistry(proxyRegistryAddress);\n        if (address(proxyRegistry.proxies(owner)) == operator) {\n            return true;\n        }\n\n        return super.isApprovedForAll(owner, operator);\n    }\n\n    /**\n     * This is used instead of msg.sender as transactions won't be sent by the original token owner, but by OpenSea.\n     */\n    function _msgSender()\n        internal\n        override\n        view\n        returns (address sender)\n    {\n        return ContextMixin.msgSender();\n    }\n}\n",
  "sourcePath": "C:\\Users\\halil\\Playground\\dragon-street\\contracts\\ERC721Tradable.sol",
  "compiler": {
    "name": "solc",
    "version": "0.8.11+commit.d7f03943.Emscripten.clang"
  },
  "schemaVersion": "3.4.4",
  "updatedAt": "2022-01-09T16:24:31.810Z",
  "devdoc": {
    "kind": "dev",
    "methods": {},
    "version": 1
  },
  "userdoc": {
    "kind": "user",
    "methods": {},
    "notice": "Used to delegate ownership of a contract to another address, to save on unneeded transactions to approve contract use for users",
    "version": 1
  }
}